:100000000C94B5000C94DD000C94DD000C94DD0024
:100010000C94DD000C94DD000C94DD000C94DD00EC
:100020000C94DD000C94DD000C94DD000C94DD00DC
:100030000C94DD000C94DD000C94DD000C94DD00CC
:100040000C9402060C94DD000C94D0050C94AA05C7
:100050000C94DD000C94DD000C94DD000C94DD00AC
:100060000C944C060C94DD0005A84CCDB2D44EB9CE
:100070003836A9020C50B9918688083CA6AAAA2A4B
:10008000BE000000803F00000000240027002A007E
:1000900000000000250028002B00000000002300C5
:1000A00026002900040404040404040402020202D9
:1000B000020203030303030301020408102040802B
:1000C00001020408102001020408102000000008AA
:1000D000000201000003040700000000000000000F
:1000E00000000000F304353F5E836C3FBE147B3F8D
:1000F0006DC47E3F0FB17F3F43EC7F3F11FB7F3FDD
:10010000C4FE7F3FB1FF7F3FECFF7F3FFBFF7F3FA0
:10011000FFFF7F3F0000803F0000803F0000803FE6
:100120000000803F0000803FF304353F15EFC33EE1
:10013000C2C5473E36BDC83D30FB483DB00AC93C4C
:10014000900E493C880FC93BC60F493BD60FC93AB0
:10015000D90F493ADB0FC939DB0F4939DB0FC938F1
:10016000DB0F4938BF0FC937670711241FBECFEF18
:10017000D8E0DEBFCDBF26E0AEE8B1E001C01D9201
:10018000A93CB207E1F711E0A0E0B1E0E4E0F1E260
:1001900002C005900D92AE38B107D9F710E0C5EB5B
:1001A000D0E004C02197FE010E947A10C43BD10721
:1001B000C9F70E94B1070C9480100C940000DC0178
:1001C000ED91FC910190F081E02D0994AF92BF92E6
:1001D000CF92DF92EF92FF920F931F93CF93DF9313
:1001E0006C017B018B01040F151FEB015E01AE1842
:1001F000BF08C017D10759F06991D601ED91FC9164
:100200000190F081E02DC6010995892B79F7C50190
:10021000DF91CF911F910F91FF90EF90DF90CF90E2
:10022000BF90AF900895FC01538D448D252F30E091
:10023000842F90E0821B930B541710F0CF960895F3
:1002400001970895FC01918D828D981761F0A28D20
:10025000AE0FBF2FB11D5D968C91928D9F5F9F73E6
:10026000928F90E008958FEF9FEF0895FC01918D9C
:10027000828D981731F0828DE80FF11D858D90E009
:1002800008958FEF9FEF0895FC01918D228D892FA6
:1002900090E0805C9F4F821B91098F73992708958E
:1002A00084E196E00E94440121E0892B09F420E0DA
:1002B000822F089580E090E0892B29F00E94500160
:1002C00081110C9400000895FC01A48DA80FB92F92
:1002D000B11DA35ABF4F2C91848D90E001968F736E
:1002E0009927848FA689B7892C93A089B1898C918D
:1002F000837080648C93938D848D981306C00288DC
:10030000F389E02D80818F7D80830895EF92FF92A5
:100310000F931F93CF93DF93EC0181E0888F9B8D28
:100320008C8D98131AC0E889F989808185FF15C0E2
:100330009FB7F894EE89FF896083E889F989808105
:100340008370806480839FBF81E090E0DF91CF91D4
:100350001F910F91FF90EF900895F62E0B8D10E0F6
:100360000F5F1F4F0F731127E02E8C8D8E110CC065
:100370000FB607FCFACFE889F989808185FFF5CFB0
:10038000CE010E946401F1CFEB8DEC0FFD2FF11D2A
:10039000E35AFF4FF0829FB7F8940B8FEA89FB89ED
:1003A00080818062CFCFCF93DF93EC01888D88234B
:1003B000B9F0AA89BB89E889F9898C9185FD03C0C8
:1003C000808186FD0DC00FB607FCF7CF8C9185FFAD
:1003D000F2CF808185FFEDCFCE010E946401E9CF8D
:1003E000DF91CF910895833081F028F4813099F026
:1003F0008230A9F008958730A9F08830C9F08430A0
:10040000B1F4809180008F7D03C0809180008F7750
:1004100080938000089584B58F7784BD089584B556
:100420008F7DFBCF8091B0008F778093B0000895CF
:100430008091B0008F7DF9CFCF93DF93282F30E0EC
:10044000F901E453FF4F8491F901E854FF4FD4912F
:10045000F901EC55FF4FC491CC23A1F081110E940A
:10046000F301EC2FF0E0EE0FFF1FE656FF4FA591D2
:10047000B491EC91ED2381E090E009F480E0DF910C
:10048000CF91089580E090E0FACF1F93CF93DF9350
:10049000282F30E0F901E453FF4F8491F901E8542B
:1004A000FF4FD491F901EC55FF4FC491CC23A9F033
:1004B000162F81110E94F301EC2FF0E0EE0FFF1FC9
:1004C000E057FF4FA591B4918FB7F894EC911111BB
:1004D00008C0D095DE23DC938FBFDF91CF911F91B1
:1004E0000895DE2BF8CFCF93DF9390E0FC01E85422
:1004F000FF4F24918C559F4FFC0184918823D1F0AC
:1005000090E0880F991FFC01EA57FF4FA591B49125
:10051000FC01E057FF4FC591D49161110EC09FB708
:10052000F8948C91E22FE0958E238C932881E2231E
:10053000E8839FBFDF91CF9108958FB7F894EC9136
:10054000E22BEC938FBFF6CF3FB7F8948091040273
:1005500090910502A0910602B091070226B5A89BD2
:1005600005C02F3F19F00196A11DB11D3FBFBA2F45
:10057000A92F982F8827BC01CD01620F711D811D05
:10058000911D42E0660F771F881F991F4A95D1F78A
:1005900008958F929F92AF92BF92CF92DF92EF9287
:1005A000FF924B015C010E94A4026B017C010E943E
:1005B000A4026C197D098E099F09683E734081056C
:1005C0009105A8F321E0821A9108A108B10888EEEC
:1005D000C80E83E0D81EE11CF11C81149104A10413
:1005E000B10429F7FF90EF90DF90CF90BF90AF90CC
:1005F0009F908F90089508952091B501260F33277D
:10060000331F21323105ECF42091D901FC0190E037
:1006100080E0243069F082E00895A091B501219135
:10062000AC014B565E4FA40FB52FB11D2C93019614
:10063000861798F38091B501680F6093B50180E04B
:10064000089581E0089508958FEF9FEF08958FEF4B
:100650009FEF089580918E0190E091958195910989
:100660000895CF93DF93CB01EA01642F0E94FC022F
:10067000CE01DF91CF910895CF93DF931F92CDB735
:10068000DEB7698361E0CE0101960E94FC0281E041
:1006900090E00F90DF91CF91089590E080E0089571
:1006A000CF93DF93EC0160E08E810E94450261E010
:1006B0008E810E94450260E08E810E9445028BE897
:1006C00091E00197F1F7DF91CF910895CF92DF92FA
:1006D000EF92FF920F931F93CF93DF936C017C01F6
:1006E00087E0E80EF11CD0E0C0E0062F10E0B80172
:1006F0000C2E02C0759567950A94E2F76170F701B8
:1007000081917F010E9445022196C430D10579F77D
:10071000C601DF91CF911F910F91FF90EF90DF9075
:10072000CF900C945003CF92DF92EF92FF920F93F1
:100730001F93CF93DF93EC01F62E642F8C810E94E0
:1007400045028D818F3F19F060E00E9445020F2D18
:1007500010E08F8584FF25C06E0187E0C80ED11C94
:10076000F12CE12CB8010E2C02C0759567950A9406
:10077000E2F76170F60181916F010E944502FFEF7F
:10078000EF1AFF0A88E0E816F10461F7CE01DF9165
:10079000CF911F910F91FF90EF90DF90CF900C942D
:1007A0005003B80184E0759567958A95E1F7CE010D
:1007B0000E9466036F2DCE01DF91CF911F910F91A3
:1007C000FF90EF90DF90CF900C94660340E0682F8D
:1007D00081EB96E00C94930381E00E94E6038BE3A7
:1007E0009FE10197F1F70895CF93DF93823029F4C9
:1007F0009091C00698609093C0068093C4061092B2
:10080000C50680E48093C60680E18093C70680E534
:100810008093C80661E08091B5060E9473028091C2
:10082000B6068F3F19F061E00E94730261E080918B
:10083000B7060E947302C1EBD6E09E01215B3640F1
:100840008091C00684FD0BC084E090E021962817BB
:10085000390744F461E08E810E947302EECF88E094
:1008600090E0F4CF8BE39DE00197F1F760E0809199
:10087000B5060E94450260E08091B7060E944502DD
:100880008091B6068F3F19F060E00E94450280918A
:10089000C00684FD34C063E081EB96E00E946603ED
:1008A000CBE4D6E4CE010197F1F763E081EB96E06B
:1008B0000E9466032197F1F763E081EB96E00E94C6
:1008C000660383E592E00197F1F762E081EB96E041
:1008D0000E9466038091C00680620E94E60384E065
:1008E0008093C1068CE00E94E6030E94EC0382E044
:1008F0008093C20686E0DF91CF910C94E60380627C
:100900000E94E6038BE496E40197F1F78091C0061C
:1009100080620E94E60383E592E00197F1F78091FF
:10092000C00680620E94E603D5CF9091C406691785
:1009300010F06FEF690FE62FF0E0EF54F94F948954
:10094000890F80680C94E60341E00E94930381E0E4
:1009500090E008958F929F92AF92BF920F931F9352
:10096000CF93DF93CDB7DEB7A1970FB6F894DEBF74
:100970000FBECDBF19A2423008F44AE08E010F5DD0
:100980001F4F842E912CB12CA12CA50194010E9403
:100990005810E62FB901CA01EA3044F5E05DD801EC
:1009A000EE938D01232B242B252B79F790E080E00B
:1009B000109769F0FD0101900020E9F73197AF0130
:1009C0004A1B5B0BBD0181EB96E00E94E600A196FD
:1009D0000FB6F894DEBF0FBECDBFDF91CF911F9150
:1009E0000F91BF90AF909F908F900895E95CD7CF03
:1009F000CF92DF92EF92FF92CF93DF936C01990F2A
:100A0000EE08FF08F7FE19C06DE281EB96E00E9448
:100A1000DF00EC0166277727CB016C197D098E0971
:100A20009F094AE00E94AA048C0F9D1FDF91CF917D
:100A3000FF90EF90DF90CF9008954AE0C701B60194
:100A4000DF91CF91FF90EF90DF90CF900C94AA04AC
:100A5000FC0101900020E9F73197AF01481B590BC9
:100A6000BC0181EB96E00C94E6001F93CF93DF93DB
:100A700085ED8093BC008091910190919201A091AD
:100A80009301B09194010796A11DB11D23E0B69585
:100A9000A795979587952A95D1F72091BC0024FDBD
:100AA00003C01092D90152C040919101509192011E
:100AB0006091930170919401452B462B472B69F36C
:100AC0000097A105B10541F025E32A95F1F7000053
:100AD0000197A109B109E1CF80919001C1E0C093D4
:100AE0008F01882399F1D091B8001091BA008091BC
:100AF000BC008A7B8093BC0060E082E10E944502DA
:100B000060E083E10E9445021092D901C093DB01AD
:100B10001092DA0161E082E10E94450261E083E126
:100B20000E9445028091B9008E7F8093B900809128
:100B3000B9008D7F8093B90088E48093B80085E484
:100B40008093BC001093BA00D093B800DF91CF918E
:100B50001F9108951F920F920FB60F9211242F9399
:100B60003F934F935F936F937F938F939F93AF9335
:100B7000BF93EF93FF9384E196E00E946401FF919D
:100B8000EF91BF91AF919F918F917F916F915F9105
:100B90004F913F912F910F900FBE0F901F9018957E
:100BA0001F920F920FB60F9211242F938F939F9342
:100BB000EF93FF93E0912406F09125068081E09168
:100BC0002A06F0912B0682FD1BC0908180912D0694
:100BD0008F5F8F7320912E06821741F0E0912D06D2
:100BE000F0E0EC5EF94F958F80932D06FF91EF9129
:100BF0009F918F912F910F900FBE0F901F9018957E
:100C00008081F4CF1F920F920FB60F9211242F9371
:100C10003F938F939F93AF93BF93809100029091E6
:100C20000102A0910202B09103023091FF0123E082
:100C3000230F2D3758F50196A11DB11D2093FF01FB
:100C40008093000290930102A0930202B0930302EA
:100C50008091040290910502A0910602B0910702D2
:100C60000196A11DB11D8093040290930502A093EB
:100C70000602B0930702BF91AF919F918F913F9170
:100C80002F910F900FBE0F901F90189526E8230FFD
:100C90000296A11DB11DD2CF1F920F920FB60F92D7
:100CA00011242F933F934F935F936F937F938F9371
:100CB0009F93AF93BF93EF93FF938091B900887F89
:100CC000803609F44AC0F0F5883209F4A5C018F559
:100CD000803109F499C0B8F4882309F4F5C088304C
:100CE00009F492C0FF91EF91BF91AF919F918F91C5
:100CF0007F916F915F914F913F912F910F900FBE18
:100D00000F901F901895883109F486C0803251F7F2
:100D10008093D80114C0803409F49BC040F4803320
:100D2000B9F38833F9F68093D80185ECAEC08035ED
:100D300009F483C0883509F494C0883499F60E9478
:100D40003505D0CF883909F48AC038F5883729F0BD
:100D500050F4883611F0803729F683E08093D9016A
:100D60001092D70155C0883809F479C0803919F03C
:100D7000803809F0B7CF8091D701803208F06FC07A
:100D8000E091D70181E08E0F8093D7018091BB0065
:100D9000F0E0E954FE4F80833BC0803B39F0D0F453
:100DA000803A09F477C0883A09F09CCF84E08093B8
:100DB000D9011092B6011092B501F0E0E0E009957A
:100DC0008091B50181110FC081E08093B50110922F
:100DD000950109C0803C09F4A8CF883C09F4A5CF4F
:100DE000883B09F07FCFE091B60181E08E0F8093C0
:100DF000B601F0E0EB56FE4F80818093BB009091EE
:100E0000B6018091B50129C08091FE018093BB009D
:100E100085EC8093BC0066CF9091FD018091FC0130
:100E2000981758F5E091FD0181E08E0F8093FD0148
:100E3000F0E0E452FE4F8081E9CFE091FD0181E0D6
:100E40008E0F8093FD018091BB00F0E0E452FE4FD5
:100E500080839091FD018091FC019817C8F285E88C
:100E6000D8CFE091FD0181E08E0F8093FD0180914C
:100E7000BB00F0E0E452FE4F80838091DB018111E2
:100E80005ECF81E08093DA0184EA8093BC00109207
:100E9000D90128CF85EC8093BC001092D9018091B4
:100EA000D701803230F4E091D701F0E0E954FE4FF1
:100EB00010826091D70170E087EB91E0F0E0E0E014
:100EC00009951092D7010ECF1092D80138CFE4E1E6
:100ED000F6E01382128288EE93E0A0E0B0E0848313
:100EE0009583A683B78384E091E09183808385EC2A
:100EF00090E09587848784EC90E09787868780ECE4
:100F000090E0918B808B81EC90E0938B828B82ECD4
:100F100090E0958B848B86EC90E0978B868B118E7E
:100F2000128E138E148EE1EBF6E01382128286E1AC
:100F300091E0918380838DE084838FEF85838CE0C3
:100F400086838BE087838AE0808789E0818788E0D9
:100F500082871386148615861686178681E00C9480
:100F6000F403CF93DF93CDB7DEB7AC970FB6F89409
:100F7000DEBF0FBECDBF789484B5826084BD84B5DA
:100F8000816084BD85B5826085BD85B5816085BD84
:100F900080916E00816080936E001092810080913C
:100FA00081008260809381008091810081608093C4
:100FB0008100809180008160809380008091B100E9
:100FC00084608093B1008091B00081608093B00014
:100FD00080917A00846080937A0080917A008260A8
:100FE00080937A0080917A00816080937A0080916A
:100FF0007A00806880937A001092C100E091240604
:10100000F091250682E08083E0912006F091210690
:101010001082E0912206F09123068FEC80831092DB
:101020002C06E0912806F091290686E08083E09165
:101030002606F0912706808180618083E091260654
:10104000F0912706808188608083E0912606F091E8
:101050002706808180688083E0912606F09127062C
:1010600080818F7D808382E00E94F40360E080E0D5
:101070000E9495048EE191E00E94280588EE91E09F
:10108000909309028093080260E087E00E94730257
:1010900060E086E00E94730260E08EE00E947302CE
:1010A00066E970E080E090E00E94C90287E00E945B
:1010B0001C02909313068093120686E00E941C0285
:1010C00090931106809310062AE034E03A83298336
:1010D0004AE052E058A34F8F5C834B833A872987BD
:1010E0000E94A40260930A0670930B0680930C067C
:1010F00090930D06B0E4B0937C0080917A008064F8
:1011000080937A0080917A0086FDFCCF80917800F0
:1011100060917900762F682F072E000C880B990BB1
:101120000E94470DE985FA856193719381939193AC
:10113000FA87E987AB81BC811D921D921D921D9299
:10114000BC83AB830E94A402AB01BC0120910802C6
:101150003091090280910A0690910B06A0910C062D
:10116000B0910D06820F931FA11DB11D481759079D
:101170006A077B0738F3E985FA85EA50F64009F0FB
:10118000AFCF0AE016E0EAE0EE2EE4E0FE2E1C828D
:101190001B824B815C81BA0190E080E00E94450D8A
:1011A00020E030E04EEF52E40E94D60E2BED3FE0FF
:1011B00049EC50E40E94A60D0E94D10E2FE135E8C3
:1011C0004BEE5EE30E94A60D9B01AC0161E77DE35F
:1011D0008AE09FE30E94640E4B015C01AC019B011D
:1011E000D7016D917D918D919C910E94A60DF70183
:1011F00061937193819391937F01A5019401D8012B
:101200009E918E917E916E918D010E94A60DF801A6
:1012100060837183828393832B813C812F5F3F4F57
:101220003C832B832034310509F0B3CFEAE0F4E0AE
:1012300090E080E050E040E01DC048175907C8F436
:10124000DC01AA0FBB1FAA0FBB1FA65FBB4F048107
:10125000158126813781CD90DD90ED90FC9013971C
:10126000C482D582E682F7820D931D932D933C9321
:101270001397349620E430E08217930728F0821BFE
:10128000930B36952795F8CF820F931F4F5F5F4FD3
:101290004F37510591F61E821D821D8A1E8A1F8AB4
:1012A000188E1B8E1C8E30E83D8F4FEB4E8F81E0E9
:1012B00090E09C838B83AB81BC81AA0FBB1FBAA734
:1012C000A9A7EB81FC8123E0EE0FFF1F2A95E1F730
:1012D000FAA3E9A32B813C81220F331F220F331F76
:1012E0003CA32BA34AE052E05A8F498F8AE094E056
:1012F0009A8B898B412C512C320110E01F8200E81F
:101300009FE398871C861B86AB81BC81EB85FC859F
:10131000AE17BF0709F4FDC0298D3A8D3CA72BA756
:1013200029883A88FC8BEB8B4B895C8940385105C6
:1013300008F0A5C08BA19CA1820D931D9EA38DA337
:10134000DC018D909D90AD90BC90EBA1FCA12BA5F4
:101350003CA5E20FF31FF8A7EFA380819181A28142
:10136000B3818D879E87AF87B88B212F3F81402F18
:101370005885C501B4010E94A60D6B017C01A30133
:1013800092016D857E858F8598890E94A60D9B01AF
:10139000AC01C701B6010E94640E6B017C012D8572
:1013A0003E854F855889612F7F81802F98850E94C7
:1013B000A60D6D877E878F87988BA3019201C5014B
:1013C000B4010E94A60D9B01AC016D857E858F85C1
:1013D00098890E94650E4B015C01A7019601F101FD
:1013E00060817181828193810E94640EADA1BEA152
:1013F0006D937D938D939C931397A5019401EBA519
:10140000FCA560817181828193810E94640EAFA1ED
:10141000B8A56D937D938D939C931397A701960127
:10142000F10160817181828193810E94650ED101F9
:101430006D937D938D939C931397A5019401EBA5D8
:10144000FCA560817181828193810E94650EABA5AC
:10145000BCA56D937D938D939C931397EB89FC8929
:1014600029A53AA5E20FF31FFC8BEB8B49A15AA1EA
:10147000240E351EA40FB51FBCA7ABA755CF212F37
:101480003F81402F58856B8D7C8D8D8D9E8D0E9468
:10149000A60D6B017C012D893E894F89588DC301B2
:1014A000B2010E94A60D9B01AC01C701B6010E94CA
:1014B000640E6B017C01A30192016B8D7C8D8D8D7F
:1014C0009E8D0E94A60D4B015C012D893E894F899E
:1014D000588D612F7F81802F98850E94A60DA501D0
:1014E00094010E94650E2B013C018B859C85019621
:1014F0009C878B87A989BA891496BA8BA98BE98DA9
:10150000FA8D3496FA8FE98F1C2DDF820E2DF88626
:10151000FBCEED81FE81EC5DFE4F85919591A5910D
:10152000B491ED81FE81E052FF4F45915591659157
:1015300074914B8F5C8F6D8F7E8F9C01AD015058E5
:101540002D8B3E8B4F8B588F4D815E814C5F5F4F53
:101550005E834D8389A59AA59C838B834C3151056D
:1015600009F0A9CEAAE0B4E0BC83AB83EB81FC8197
:101570006191719181919191FC83EB83AF8DB8A1C1
:10158000CD90DD90ED90FD90B8A3AF8F9B01AC01A5
:101590000E94A60D4B015C01A7019601C701B6018F
:1015A0000E94A60D9B01AC01C501B4010E94650E0D
:1015B0000E94C80FEB81FC81349760837183828322
:1015C0009383E985FA852B813C81E217F30771F655
:1015D0001C821B82912C812C712C612C01E010E06B
:1015E000A981BA816D917D918D919D91BA83A983D5
:1015F000AC901196BC9011971296EC90129713969E
:10160000FC906801BFEFCB1ADB0A9501A7010E948D
:10161000400D87FF1CC0E981FA8124813581468114
:101620005781B501C7010E94BD0F181684F4292DFA
:10163000382D472D562DB501C7010E94BD0F181634
:1016400034F41C830B839A2C8B2C7E2C6F2C8601FC
:101650000134110529F60B811C810150104C000F3B
:10166000111F000F111FF801E65FFB4F8080918072
:10167000A280B380F801EE5EFB4FC080D180E28093
:10168000F380A7019601C501B4010E94640E2B01ED
:101690003C01F801E25FFB4F60817181828193819F
:1016A0009B01AC010E94650E9B01AC01C501B40118
:1016B0000E94640EA70196010E94650E9B01AC0179
:1016C000C301B2010E94D60E20E030E040E05FE3AB
:1016D0000E94A60D6B017C012B813C81B90190E039
:1016E00080E00E94450D9B01AC01C701B6010E943C
:1016F000650E20E030E040E055E40E94A60D4B81ED
:101700005C814034510509F4B4C120E030E04EEF73
:1017100052E40E94D60E0E94480F70930F06609309
:101720000E066AE070E080E090E00E94C9028091BD
:10173000120690911306892BE9F565E584E196E0A0
:101740000E94DF000E94EC0360E080E00E949504AC
:101750008EE291E00E94280561E080E00E949504FD
:1017600080E491E00E94280561E083E00E949504F6
:1017700080911006909111060E94F80461E085E0C6
:101780000E94950483E491E00E942805809112064E
:10179000909113060E94F80461E08AE00E9495048B
:1017A00086E491E00E94280580910E0690910F0634
:1017B0000E94F8048091120690911306892B09F07B
:1017C0004BC08091100690911106019709F044C01A
:1017D00080910E0690910F0680399140ECF567E5F7
:1017E00084E196E00E94DF000E94EC0360E080E06C
:1017F0000E94950489E491E00E94280561E080E060
:101800000E94950480E491E00E94280561E083E055
:101810000E94950480911006909111060E94F80490
:1018200061E085E00E94950483E491E00E94280530
:1018300080911206909113060E94F80461E08AE0FC
:101840000E94950486E491E00E94280580910E068E
:1018500090910F060E94F804809112069091130651
:10186000892B09F04DC08091100690911106892BAB
:1018700009F046C080910E0690910F068059914064
:101880008D329140E8F568E584E196E00E94DF0042
:101890000E94EC0360E080E00E9495048AE591E0FC
:1018A0000E94280561E080E00E94950480E491E0B8
:1018B0000E94280561E083E00E9495048091100653
:1018C000909111060E94F80461E085E00E94950461
:1018D00083E491E00E9428058091120690911306FE
:1018E0000E94F80461E08AE00E94950486E491E099
:1018F0000E94280580910E0690910F060E94F80420
:101900008091120690911306892B09F04DC08091A9
:10191000100690911106892B09F046C080910E06A1
:1019200090910F06805991408D329140E8F569E51C
:1019300084E196E00E94DF000E94EC0360E080E01A
:101940000E9495048BE691E00E94280561E080E00A
:101950000E94950480E491E00E94280561E083E004
:101960000E94950480911006909111060E94F8043F
:1019700061E085E00E94950483E491E00E942805DF
:1019800080911206909113060E94F80461E08AE0AB
:101990000E94950486E491E00E94280580910E063D
:1019A00090910F060E94F804809112069091130600
:1019B000892B09F04BC08091100690911106892B5C
:1019C00009F044C080910E0690910F068039914035
:1019D000ECF56AE584E196E00E94DF000E94EC03EA
:1019E00060E080E00E9495048DE791E00E94280568
:1019F00061E080E00E94950480E491E00E94280567
:101A000061E083E00E949504809110069091110698
:101A10000E94F80461E085E00E94950483E491E06F
:101A20000E94280580911206909113060E94F804E6
:101A300061E08AE00E94950486E491E00E94280516
:101A400080910E0690910F060E94F80464E670E003
:101A500080E090E00E94C90220E030E0232B09F4EE
:101A600025CB0E945001882309F420CB0E9400005E
:101A70001DCB20E030E040E05CE30E94A60D4BCEA1
:101A80000E94820D08F481E00895E89409C097FB54
:101A90003EF490958095709561957F4F8F4F9F4F45
:101AA0009923A9F0F92F96E9BB279395F695879589
:101AB00077956795B795F111F8CFFAF4BB0F11F44C
:101AC00060FF1BC06F5F7F4F8F4F9F4F16C08823F3
:101AD00011F096E911C0772321F09EE8872F762F29
:101AE00005C0662371F096E8862F70E060E02AF06A
:101AF0009A95660F771F881FDAF7880F9695879556
:101B000097F90895990F0008550FAA0BE0E8FEEF2A
:101B100016161706E807F907C0F012161306E407B1
:101B2000F50798F0621B730B840B950B39F40A26AA
:101B300061F0232B242B252B21F408950A2609F488
:101B4000A140A6958FEF811D811D08950E94B90DBA
:101B50000C942A0E0E941C0E38F00E94230E20F0D6
:101B6000952311F00C94130E0C94190E11240C945F
:101B70005E0E0E943B0E70F3959FC1F3950F50E0EF
:101B8000551F629FF001729FBB27F00DB11D639F2F
:101B9000AA27F00DB11DAA1F649F6627B00DA11DD5
:101BA000661F829F2227B00DA11D621F739FB00D7B
:101BB000A11D621F839FA00D611D221F749F3327EB
:101BC000A00D611D231F849F600D211D822F762F84
:101BD0006A2F11249F5750409AF0F1F088234AF061
:101BE000EE0FFF1FBB1F661F771F881F91505040CD
:101BF000A9F79E3F510580F00C94130E0C945E0ED5
:101C00005F3FE4F3983ED4F3869577956795B79553
:101C1000F795E7959F5FC1F7FE2B880F911D96956D
:101C2000879597F9089597F99F6780E870E060E0DD
:101C300008959FEF80EC089500240A941616170665
:101C400018060906089500240A94121613061406AD
:101C500005060895092E0394000C11F4882352F010
:101C6000BB0F40F4BF2B11F460FF04C06F5F7F4FC8
:101C70008F4F9F4F089557FD9058440F551F59F0AF
:101C80005F3F71F04795880F97FB991F61F09F3F69
:101C900079F087950895121613061406551FF2CF92
:101CA0004695F1DF08C0161617061806991FF1CFE2
:101CB00086957105610508940895E894BB27662709
:101CC0007727CB0197F908955058BB27AA270E9480
:101CD0007C0E0C942A0E0E941C0E38F00E94230EDB
:101CE00020F039F49F3F19F426F40C94190E0EF4E9
:101CF000E095E7FB0C94130EE92F0E943B0E58F37E
:101D0000BA17620773078407950720F079F4A6F5E0
:101D10000C945D0E0EF4E0950B2EBA2FA02D0B0146
:101D2000B90190010C01CA01A0011124FF27591B20
:101D300099F0593F50F4503E68F11A16F040A22F26
:101D4000232F342F4427585FF3CF46953795279597
:101D5000A795F0405395C9F77EF41F16BA0B620B96
:101D6000730B840BBAF09150A1F0FF0FBB1F661FDD
:101D7000771F881FC2F70EC0BA0F621F731F841F20
:101D800048F4879577956795B795F7959E3F08F046
:101D9000B0CF9395880F08F09927EE0F9795879508
:101DA00008950E94800FE3950C94A90F0E94EA0EFB
:101DB0000C942A0E0E94230E58F00E941C0E40F034
:101DC00029F45F3F29F00C94130E51110C945E0E10
:101DD0000C94190E0E943B0E68F39923B1F355231E
:101DE00091F3951B550BBB27AA276217730784072E
:101DF00038F09F5F5F4F220F331F441FAA1FA9F3C4
:101E000035D00E2E3AF0E0E832D091505040E695B1
:101E1000001CCAF72BD0FE2F29D0660F771F881F12
:101E2000BB1F261737074807AB07B0E809F0BB0B05
:101E3000802DBF01FF2793585F4F3AF09E3F510519
:101E400078F00C94130E0C945E0E5F3FE4F3983E12
:101E5000D4F3869577956795B795F7959F5FC9F702
:101E6000880F911D9695879597F90895E1E0660F83
:101E7000771F881FBB1F621773078407BA0720F0FC
:101E8000621B730B840BBA0BEE1F88F7E095089565
:101E90000E944F0F6894B1110C945E0E08950E9439
:101EA000430E88F09F5798F0B92F9927B751B0F09B
:101EB000E1F0660F771F881F991F1AF0BA95C9F7CE
:101EC00014C0B13091F00E945D0EB1E008950C9401
:101ED0005D0E672F782F8827B85F39F0B93FCCF3B4
:101EE000869577956795B395D9F73EF4909580954B
:101EF000709561957F4F8F4F9F4F08950C94190EE9
:101F00000E94430ED8F3E894E0E0BB279F57F0F01F
:101F10002AED3FE049EC06C0EE0FBB0F661F771FAE
:101F2000881F28F0B23A62077307840728F0B25A74
:101F3000620B730B840BE3959A9572F7803830F43B
:101F40009A95BB0F661F771F881FD2F790480C9495
:101F50000A10EF93E0FF07C0A2EA2AED3FE049EC48
:101F60005FEB0E947C0E0E942A0E0F90039401FCEE
:101F70009058E8E6F0E00C941D100E94820D08F4E1
:101F80008FEF089519F416F40C94190E0C940810A0
:101F90000E94430EB8F39923C9F3B6F39F57550B2C
:101FA00087FF0E9416100024A0E640EA90018058A6
:101FB0005695979528F4805C660F771F881F20F050
:101FC00026173707480730F4621B730B840B202950
:101FD00031294A2BA69517940794202531254A27A5
:101FE00058F7660F771F881F20F026173707480716
:101FF00030F4620B730B840B200D311D411DA09535
:1020000081F7B901842F9158880F96958795089587
:102010009F3F31F0915020F4879577956795B7955C
:10202000880F911D9695879597F908959150504086
:10203000660F771F881FD2F708959F938F937F9322
:102040006F93FF93EF939B01AC010E94A60DEF915C
:10205000FF910E9431102F913F914F915F910C940D
:10206000A60DDF93CF931F930F93FF92EF92DF9212
:102070007B018C01689406C0DA2EEF010E94B90D35
:10208000FE01E894A5912591359145915591A6F3CE
:10209000EF010E947C0EFE019701A801DA9469F716
:1020A000DF90EF90FF900F911F91CF91DF910895F6
:1020B000A1E21A2EAA1BBB1BFD010DC0AA1FBB1F4C
:1020C000EE1FFF1FA217B307E407F50720F0A21BBE
:1020D000B30BE40BF50B661F771F881F991F1A942B
:1020E00069F760957095809590959B01AC01BD0155
:1020F000CF010895EE0FFF1F0590F491E02D099494
:04210000F894FFCF81
:10210400000000008601E6001301D301440122010E
:10211400360100000000A404E6004D03FB02202069
:10212400202057454C434F4D45202020200020209F
:1021340020574541522048454C4D4554202020000D
:10214400473A00463A004D3A0020202020414C43B3
:10215400484F484F4C2020202000444F4E27542005
:10216400535045414B2043414C4C0020414C434883
:102174004F484F4C20262043414C4C2000204841DE
:0E218400505059204A4F55524E4559200000E8
:00000001FF
