:020000040000FA
:100000000C9453010C9484010C9484010C9484018D
:100010000C9484010C9484010C9484010C9484014C
:100020000C9484010C94F00A0C94F00A0C94F00ADD
:100030000C9484010C9484010C9484010C9484012C
:100040000C9484010C9484010C9484010C9484011C
:100050000C9484010C9484010C9484010C94A60AE1
:100060000C9484010C947C0A0C94520A0C94840124
:100070000C9484010C9484010C9484010C948401EC
:100080000C9484010C9484010C9484010C948401DC
:100090000C94280A0C94FE090C9484010C94FA0A1E
:1000A0000C9484010C9484010C9484010C948401BC
:1000B0000C9484010C9484010C9484010C948401AC
:1000C0000C9484010C9484010C9484010C94D40944
:1000D0000C94AA090C9484010C9484010C9484015E
:1000E0000C9484010C9430050C94FF030C949D0334
:1000F0000C94A10E0C9478040C94A1030C9413049A
:100100000C9474030C94F0030C941B040C941202D2
:100110000C9483060C9437040C9493030C94DE0423
:100120000C94E8030C94F5030C9441040C94CC015A
:100130000C94AB030C9450040C9464040C946C0366
:100140000C9485030C9409040C9478030C94990383
:100150000C941A0C0C948F020C945A030C942102E8
:100160000C9481030C946E040C9482040C94700320
:100170000C948B030C947B030C9435020C94A70312
:100180000C9455030C948F030C942D040C945A0476
:100190000C9423040C9443020C94DC0200000A0B20
:1001A00002090C0D0E080703040100000000000006
:1001B000000000000000000000000000000000003F
:1001C00000000000000000001211100000000000FC
:1001D000000000000000000000000000000000001F
:1001E000000000002200250028002B002E00310016
:1001F000340002010000050108010B01000021008C
:10020000240027002A002D003000330001010000E7
:10021000040107010A010505050507050808080886
:10022000020202020A0A080804040404010101018E
:100230000101010103030303030303030407070789
:100240000C0C0C0C0C0C0C0C02020202060606062E
:10025000060606060B0B0B0B0B0B0B0B01021020FB
:1002600020080810204010204080020102010804EC
:100270000201010204081020408080402010080480
:1002800002018004020180402010080402010804D9
:10029000020101020408102040800102040810201D
:1002A00040801A0CA10E11241FBECFEFD1E2DEBF99
:1002B000CDBF00E00CBF25E0A6E3B3E001C01D9276
:1002C000A53FB207E1F713E0A0E0B2E0EEE7F6E207
:1002D00000E00BBF02C007900D92A633B107D9F71B
:1002E00011E0C2E5D1E000E006C021970109802FAE
:1002F000FE010E940F11C135D10780E00807A9F760
:100300000E94F30C0C942D130C94000090E0FC015F
:10031000E45AFD4F24918A5E9D4FFC01849188230D
:1003200099F090E0880F991FFC01E450FE4FA591D1
:10033000B491FC01EE51FE4F859194918FB7F894E2
:10034000EC91E22BEC938FBF0895FC01A089B18959
:1003500082E08C93A485B5851C92A685B7858FEC29
:100360008C93108EA489B58986E08C93A289B38979
:100370008C9180618C93A289B3898C9188608C93D5
:10038000A289B3898C9180688C930288F389E02DCF
:1003900080818F7D80830895AF92BF92CF92DF924C
:1003A000EF92FF920F931F93CF93DF936C017B012A
:1003B0008B01040F151FEB015E01AE18BF08C017BB
:1003C000D10759F06991D601ED91FC910190F0812E
:1003D000E02DC6011995892B79F7C501DF91CF91E1
:1003E0001F910F91FF90EF90DF90CF90BF90AF9053
:1003F0000895FC01A089B1898C91A689B78982FDF5
:100400000FC09C91818D8F5F8F73228D821749F071
:10041000A18DAE0FBF2FB11D5D969C93818F089566
:100420008C910895FC01538D448D252F30E0842F4D
:1004300090E0821B930B541710F0CF96089501970C
:100440000895FC01918D828D981761F0A28DAE0FF9
:10045000BF2FB11D5D968C91928D9F5F9F73928F80
:1004600090E008958FEF9FEF0895FC01918D828DAC
:10047000981731F0828DE80FF11D858D90E0089579
:100480008FEF9FEF0895FC01918D228D892F90E0D1
:10049000805C9F4F821B91098F739927089582EB8F
:1004A00093E00E94430221E0892B09F420E0822F8F
:1004B000089582EF94E00E94430221E0892B09F421
:1004C00020E0822F08958FE494E00E94430221E00F
:1004D000892B09F420E0822F0895FC01A48DA80F38
:1004E000B92FB11DA35ABF4F2C91848D90E0019676
:1004F0008F739927848FA689B7892C93A089B18996
:100500008C91837080648C93938D848D981306C036
:100510000288F389E02D80818F7D80830895EF929A
:10052000FF920F931F93CF93DF93EC0181E0888FAD
:100530009B8D8C8D98131AC0E889F989808185FF7D
:1005400015C09FB7F894EE89FF896083E889F9891F
:1005500080818370806480839FBF81E090E0DF9121
:10056000CF911F910F91FF90EF900895F62E0B8D74
:1005700010E00F5F1F4F0F731127E02E8C8D8E112F
:100580000CC00FB607FCFACFE889F989808185FF96
:10059000F5CFCE010E946D02F1CFEB8DEC0FFD2F58
:1005A000F11DE35AFF4FF0829FB7F8940B8FEA8951
:1005B000FB8980818062CFCFCF93DF93EC01888D60
:1005C0008823B9F0AA89BB89E889F9898C9185FDCE
:1005D00003C0808186FD0DC00FB607FCF7CF8C915C
:1005E00085FFF2CF808185FFEDCFCE010E946D02A5
:1005F000E9CFDF91CF91089580E090E0892B29F039
:100600000E94630281110E94000080E090E0892B2B
:1006100029F00E94590281110E94000080E090E0C0
:10062000892B29F00E944F0281110E94000080E076
:1006300090E0892B49F080E090E0892B29F00E941E
:10064000000081110C9400000895282F30E0F9017A
:10065000E456FE4F9491F901E45AFD4F44912A5E0D
:100660003D4FF9012491222309F435C0992311F15A
:1006700091509231F8F4E92FF0E08827ED5BFC4FC0
:100680008F4F0C940F117403780355036C037003A0
:100690005A037B03810385038B038F039303990321
:1006A0009D035A03A103A703AB03809180008F77BA
:1006B00080938000E22FF0E0EE0FFF1FEE51FE4F1F
:1006C000A591B4918FB7F894EC91611148C0409511
:1006D0004E234C938FBF0895809180008F7DE8CF8B
:1006E00080918000877FE4CF84B58F7784BDE2CF8F
:1006F00084B58F7DFBCF8091B0008F778093B00061
:10070000D9CF8091B0008F7DF9CF809190008F7705
:1007100080939000CFCF809190008F7DF9CF809112
:100720009000877FF5CF8091A0008F778093A00005
:10073000C1CF8091A0008F7DF9CF8091A000877FED
:10074000F5CF809120018F7780932001B3CF8091E6
:1007500020018F7DF9CF80912001877FF5CF4E2B2F
:10076000B8CF1F93CF93DF93182FEB010E94860120
:10077000209739F460E0812FDF91CF911F910C9485
:100780002503CF3FD10511F461E0F5CFE12FF0E073
:10079000E456FE4FE491E150E23108F0B3C0F0E0DE
:1007A0008827EA52FC4F8F4F0C940F11E803F00397
:1007B000F503FF030904820413041B0423042D041E
:1007C0003704410450045A04820464046E0478041B
:1007D00084B5806884BDC7BDDF91CF911F91089516
:1007E00084B5806284BDC8BDF7CF809180008068E9
:1007F00080938000D0938900C0938800EDCF8091D2
:100800008000806280938000D0938B00C0938A0028
:10081000E3CF80918000886080938000D0938D002A
:10082000C0938C00D9CF8091B00080688093B000D5
:10083000C093B300D1CF8091B00080628093B000AC
:10084000C093B400C9CF80919000806880939000DD
:10085000D0939900C0939800BFCF809190008062A0
:1008600080939000D0939B00C0939A00B5CF809165
:100870009000886080939000D0939D00C0939C006E
:10088000ABCF8091A00080688093A0008091A000F1
:100890008F7B8093A000D093A900C093A8009CCF29
:1008A0008091A00080628093A000D093AB00C093A1
:1008B000AA0092CF8091A00088608093A000D0937E
:1008C000AD00C093AC0088CF8091200180688093F8
:1008D0002001D0932901C09328017ECF809120016F
:1008E000806280932001D0932B01C0932A0174CFA2
:1008F00080912001886080932001D0932D01C093C6
:100900002C016ACFC038D1050CF03ECF33CF3FB7B2
:10091000F8948091AE039091AF03A091B003B09191
:10092000B10326B5A89B05C02F3F19F00196A11D64
:10093000B11D3FBFBA2FA92F982F8827BC01CD0129
:10094000620F711D811D911D42E0660F771F881F88
:10095000991F4A95D1F708958F929F92AF92BF92B7
:10096000CF92DF92EF92FF924B015C010E948704CD
:100970006B017C010E9487046C197D098E099F0917
:10098000683E734081059105A8F321E0821A910821
:10099000A108B10888EEC80E83E0D81EE11CF11C46
:1009A00081149104A104B10429F7FF90EF90DF9026
:1009B000CF90BF90AF909F908F9008950895209111
:1009C0005D03260F3327331F21323105ECF42091CC
:1009D0008103FC0190E080E0243069F082E008951A
:1009E000A0915D032191AC01435C5C4FA40FB52F36
:1009F000B11D2C930196861798F380915D03680FC3
:100A000060935D0380E0089581E0089508958FEF7D
:100A10009FEF08958FEF9FEF08958091360390E048
:100A20009195819591090895CF93DF93CB01EA01C8
:100A3000642F0E94DF04CE01DF91CF910895CF9300
:100A4000DF931F92CDB7DEB7698361E0CE010196D7
:100A50000E94DF0481E090E00F90DF91CF91089534
:100A600090E080E00895CF93DF93EC0160E08E8109
:100A70000E94250361E08E810E94250360E08E8143
:100A80000E9425038BE891E00197F1F7DF91CF9168
:100A90000895CF92DF92EF92FF920F931F93CF931F
:100AA000DF936C017C0187E0E80EF11CD0E0C0E030
:100AB000062F10E0B8010C2E02C0759567950A94B8
:100AC000E2F76170F70181917F010E942503219671
:100AD000C430D10579F7C601DF91CF911F910F91F5
:100AE000FF90EF90DF90CF900C943305CF92DF9280
:100AF000EF92FF920F931F93CF93DF93EC01F62EAB
:100B0000642F8C810E9425038D818F3F19F060E056
:100B10000E9425030F2D10E08F8584FF25C06E01F4
:100B200087E0C80ED11CF12CE12CB8010E2C02C0BC
:100B3000759567950A94E2F76170F60181916F01EE
:100B40000E942503FFEFEF1AFF0A88E0E816F10480
:100B500061F7CE01DF91CF911F910F91FF90EF9040
:100B6000DF90CF900C943305B80184E075956795BC
:100B70008A95E1F7CE010E9449056F2DCE01DF91E4
:100B8000CF911F910F91FF90EF90DF90CF900C9439
:100B9000490540E0682F89ED95E00C94760581E0E9
:100BA0000E94C9058BE39FE10197F1F70895CF9368
:100BB000DF93823029F49091E80598609093E805DE
:100BC0008093EC051092ED0580E48093EE0580E1C2
:100BD0008093EF0580E58093F0058091DD050E940C
:100BE00086018091DE058F3F11F00E948601809181
:100BF000DF050E948601C9EDD5E09E01295D3540E3
:100C00008091E80584FD0AC084E090E021962817D1
:100C100039073CF48E810E948601EFCF88E090E096
:100C2000F5CF8BE39DE00197F1F760E08091DD0562
:100C30000E94250360E08091DF050E9425038091DA
:100C4000DE058F3F19F060E00E9425038091E805E2
:100C500084FD34C063E089ED95E00E944905CBE452
:100C6000D6E4CE010197F1F763E089ED95E00E94AB
:100C700049052197F1F763E089ED95E00E94490568
:100C800083E592E00197F1F762E089ED95E00E943B
:100C900049058091E80580620E94C90584E080933F
:100CA000E9058CE00E94C9050E94CF0582E080938F
:100CB000EA0586E0DF91CF910C94C90580620E941D
:100CC000C9058BE496E40197F1F78091E80580620D
:100CD0000E94C90583E592E00197F1F78091E8054C
:100CE00080620E94C905D5CF9091EC05691710F07C
:100CF0006FEF690FE62FF0E0E752FA4F9489890F02
:100D000080680C94C90541E00E94760581E090E07E
:100D100008950F931F93CF93DF93EC0188819981FE
:100D2000009759F02A813B812617370730F081E080
:100D3000DF91CF911F910F9108958B016F5F7F4FCE
:100D40000E943C12009759F0998388831B830A8381
:100D50002C813D81232B59F7FC011082E8CF80E0E4
:100D6000E7CFCF93DF93EC0188819981009711F051
:100D70000E94B311198218821D821C821B821A8262
:100D8000DF91CF910895FC0180819181009711F04E
:100D90000C94B3110895FB0101900020E9F73197FD
:100DA000AF01461B570BDC01ED91FC910280F381F2
:100DB000E02D19948F929F92AF92BF920F931F9341
:100DC000CF93DF93CDB7DEB7A1970FB6F894DEBF10
:100DD0000FBECDBF19A2423008F44AE08E010F5D6C
:100DE0001F4F842E912CB12CA12CA50194010E949F
:100DF000ED10E62FB901CA01EA3004F5E05DD80133
:100E0000EE938D01232B242B252B79F790E080E0A6
:100E1000109729F0BD0182EB93E00E94CB06A196CA
:100E20000FB6F894DEBF0FBECDBFDF91CF911F91FB
:100E30000F91BF90AF909F908F900895E95CDFCFA6
:100E40004F925F926F927F928F929F92AF92BF92DA
:100E5000CF92DF92EF92FF920F931F93CF936B018C
:100E60007C01742EAC019B010E94E81064E272E0E8
:100E7000811126C046015701E894B7F82FEF3FEFE4
:100E80004FE75FE7C501B4010E94E81081110CC073
:100E90002FEF3FEF4FE75FE7C501B4010E94B10EAE
:100EA00068E272E0181664F02FEF3FEF4FE75FE45F
:100EB000C701B6010E94E3101816ACF46CE272E0B0
:100EC00082EB93E0CF911F910F91FF90EF90DF9015
:100ED000CF90BF90AF909F908F907F906F905F90DA
:100EE0004F900C94CB062FEF3FEF4FE75FECC7011D
:100EF000B6010E94B10E87FDE1CF20E030E0A901EC
:100F0000C701B6010E94B10E10E000E087FF0AC0E1
:100F10006DE282EB93E00E948F028C01F7FAF0946D
:100F2000F7F8F094C0E060E070E080E09FE37C16AA
:100F300041F020E030E040E251E40E944210CF5FF7
:100F4000F6CFA70196010E94D60F2B013C010E940B
:100F5000B4104B015C014AE00E94DA067C01E00E0D
:100F6000F11ECC23C1F1C501B4010E94B60E9B0154
:100F7000AC01C301B2010E94D50F4B015C016EE2CE
:100F800082EB93E00E948F02E80EF91EC15018F127
:100F900020E030E040E251E4C501B4010E94170FA7
:100FA0002B013C010E94B4104B01B12CA12C4AE052
:100FB000C501B4010E94DA06E80EF91EC501B401AC
:100FC0000E94B60E9B01AC01C301B2010E94D50F75
:100FD0004B015C01DBCFC701CF911F910F91FF90B7
:100FE000EF90DF90CF90BF90AF909F908F907F90C9
:100FF0006F905F904F900895CF93DF93FC014481F1
:1010000055816081718182EB93E00E94CC01EC01FB
:1010100060E372E082EB93E00E94CB068C0F9D1F91
:10102000DF91CF9108950F931F93CF93DF93EC013E
:101030000E94CB068C0160E372E0CE010E94CB06D9
:10104000800F911FDF91CF911F910F9108950C9404
:10105000CB06EF92FF920F931F93CF93DF93EC0198
:101060007B01198218821B821A821D821C82FB015D
:1010700001900020E9F731978F01061B170BB8018B
:101080000E948906811109C0CE01DF91CF911F9185
:101090000F91FF90EF900C94B1061D830C83B70164
:1010A00088819981DF91CF911F910F91FF90EF90EF
:1010B0000C942613CF92DF92EF92FF920F931F931F
:1010C000CF93DF93CDB7DEB72C970FB6F894DEBF82
:1010D0000FBECDBF6C017B0163E372E082EB93E056
:1010E0000E94130868EE73E080E090E00E94AC0478
:1010F00066E372E082EB93E00E94130868EE73E00F
:1011000080E090E00E94AC0418861F821A8619863F
:101110001C861B86F601008111810115110569F0FD
:10112000C480D580B601CE0107960E948906811140
:1011300082C0CE0107960E94B10660E472E0CE0143
:1011400001960E942908CF80D884C114D10409F4E3
:101150007AC00B851C8501151105B9F08D819E8122
:10116000080F191FB801CE0101960E948906882335
:1011700009F469C029813A818D819E81B601820F6F
:10118000931F0E9426131E830D830D811E810E5F07
:101190001F4FB801CE0101960E948906811158C0E7
:1011A000CE0101960E94B106CE0101960E94FC0775
:1011B000CE0101960E94C306CE0107960E94C30687
:1011C00068EE73E080E090E00E94AC04C7010E94EA
:1011D000FC0760E572E082EB93E00E94270845E09F
:1011E00060E070E0CB010E9420076DE672E082EBC8
:1011F00093E00E94270845E060E070E0CB010E9488
:10120000200768EE73E080E090E00E94AC046AE1A1
:1012100082EB93E00E948F022C960FB6F894DEBF0B
:101220000FBECDBFDF91CF911F910F91FF90EF9037
:10123000DF90CF900895DC86CB86B8018F819885AA
:101240000E9426137ACFCE0101960E94B1069DCF4F
:1012500029813A818D819E816DE472E0820F931F16
:101260000E9426131E830D839FCF1F93CF93DF937E
:1012700085ED8093BC008091390390913A03A09151
:101280003B03B0913C030796A11DB11D23E0B69529
:10129000A795979587952A95D1F72091BC0024FDB5
:1012A00003C01092810352C04091390350913A0318
:1012B00060913B0370913C03452B462B472B69F310
:1012C0000097A105B10541F025E32A95F1F700004B
:1012D0000197A109B109E1CF80913803C1E0C09322
:1012E0003703882399F1D091B8001091BA0080910A
:1012F000BC008A7B8093BC0060E084E10E942503EF
:1013000060E085E10E94250310928103C09383036E
:101310001092820361E084E10E94250361E085E18F
:101320000E9425038091B9008E7F8093B90080913F
:10133000B9008D7F8093B90088E48093B80085E47C
:101340008093BC001093BA00D093B800DF91CF9186
:101350001F9108951F920F920FB60F9211240BB692
:101360000F922F933F934F935F936F937F938F933E
:101370009F93AF93BF93EF93FF9382EB93E00E9411
:101380006D02FF91EF91BF91AF919F918F917F91EE
:101390006F915F914F913F912F910F900BBE0F90E6
:1013A0000FBE0F901F9018951F920F920FB60F92BD
:1013B00011240BB60F922F933F934F935F936F932C
:1013C0007F938F939F93AF93BF93EF93FF9382EBA2
:1013D00093E00E94F901FF91EF91BF91AF919F912E
:1013E0008F917F916F915F914F913F912F910F90CE
:1013F0000BBE0F900FBE0F901F9018951F920F926B
:101400000FB60F9211240BB60F922F933F934F9369
:101410005F936F937F938F939F93AF93BF93EF935C
:10142000FF9382EF94E00E946D02FF91EF91BF91D4
:10143000AF919F918F917F916F915F914F913F916C
:101440002F910F900BBE0F900FBE0F901F9018950D
:101450001F920F920FB60F9211240BB60F922F937B
:101460003F934F935F936F937F938F939F93AF932C
:10147000BF93EF93FF9382EF94E00E94F901FF91F5
:10148000EF91BF91AF919F918F917F916F915F91FC
:101490004F913F912F910F900BBE0F900FBE0F9069
:1014A0001F9018951F920F920FB60F9211240BB632
:1014B0000F922F933F934F935F936F937F938F93ED
:1014C0009F93AF93BF93EF93FF938FE494E00E94B9
:1014D0006D02FF91EF91BF91AF919F918F917F919D
:1014E0006F915F914F913F912F910F900BBE0F9095
:1014F0000FBE0F901F9018951F920F920FB60F926C
:1015000011240BB60F922F933F934F935F936F93DA
:101510007F938F939F93AF93BF93EF93FF938FE44A
:1015200094E00E94F901FF91EF91BF91AF919F91DB
:101530008F917F916F915F914F913F912F910F907C
:101540000BBE0F900FBE0F901F9018951F920F9219
:101550000FB60F9211242F933F938F939F93AF93C6
:10156000BF938091AA039091AB03A091AC03B0917B
:10157000AD033091A90323E0230F2D3758F50196D1
:10158000A11DB11D2093A9038093AA039093AB03DF
:10159000A093AC03B093AD038091AE039091AF03E1
:1015A000A091B003B091B1030196A11DB11D80932C
:1015B000AE039093AF03A093B003B093B103BF9178
:1015C000AF919F918F913F912F910F900FBE0F90F0
:1015D0001F90189526E8230F0296A11DB11DD2CFAA
:1015E0001F920F920FB60F9211240F900FBE0F9003
:1015F0001F9018951F920F920FB60F9211240BB6E1
:101600000F922F933F934F935F936F937F938F939B
:101610009F93AF93BF93EF93FF938091B900887F1F
:10162000803609F44DC008F040C0883209F4A7C0E4
:1016300028F5803109F49BC0C8F4882309F4F7C069
:10164000883009F494C0FF91EF91BF91AF919F91C1
:101650008F917F916F915F914F913F912F910F905B
:101660000BBE0F900FBE0F901F901895883109F494
:1016700086C0803241F78093800314C0803409F41F
:101680009BC040F48033B9F38833E9F6809380033C
:1016900085ECAEC0803509F483C0883509F494C068
:1016A000883489F60E943509CECF883909F48AC07A
:1016B00038F5883729F050F4883611F0803719F65C
:1016C00083E08093810310927F0355C0883809F42A
:1016D00079C0803919F0803809F0B5CF80917F0347
:1016E000803208F06FC0E0917F0381E08E0F80931D
:1016F0007F038091BB00F0E0E15AFC4F80833BC048
:10170000803B39F0D0F4803A09F477C0883A09F088
:101710009ACF84E08093810310925E0310925D0360
:10172000F0E0E0E0199580915D0381110FC081E048
:1017300080935D0310923D0309C0803C09F4A8CF5B
:10174000883C09F4A5CF883B09F07DCFE0915E038A
:1017500081E08E0F80935E03F0E0E35CFC4F8081BC
:101760008093BB0090915E0380915D0329C08091BE
:10177000A6038093BB0085EC8093BC0064CF90915E
:10178000A5038091A403981758F5E091A50381E083
:101790008E0F8093A503F0E0EC57FC4F8081E9CFDA
:1017A000E091A50381E08E0F8093A5038091BB009B
:1017B000F0E0EC57FC4F80839091A5038091A40347
:1017C0009817C8F285E8D8CFE091A50381E08E0F85
:1017D0008093A5038091BB00F0E0EC57FC4F808321
:1017E0008091830381115ECF81E08093820384EA3C
:1017F0008093BC001092810326CF85EC8093BC00BF
:101800001092810380917F03803230F4E0917F0356
:10181000F0E0E15AFC4F108260917F0370E08FE5A9
:1018200093E0F0E0E0E0199510927F030CCF109266
:10183000800338CFCF93DF93E2EBF3E01382128281
:1018400048EE53E060E070E044835583668377831D
:101850008AE092E09183808325ED30E0358724870C
:1018600024ED30E03787268720ED30E0318B208B68
:1018700021ED30E0338B228B22ED30E0358B248B51
:1018800026ED30E0378B268B118E128E138E148E40
:10189000C2EFD4E01B821A824C835D836E837F8308
:1018A000998388832DEC30E03D872C872CEC30E049
:1018B0003F872E8728EC30E0398B288B29EC30E0ED
:1018C0003B8B2A8B2AEC30E03D8B2C8B2EEC30E0CE
:1018D0003F8B2E8B198E1A8E1B8E1C8EEFE4F4E03C
:1018E0001382128244835583668377839183808336
:1018F00085EC90E09587848784EC90E097878687D5
:1019000080EC90E0918B808B81EC90E0938B828BCC
:1019100082EC90E0958B848B86EC90E0978B868BA5
:10192000118E128E138E148EE9EDF5E01382128261
:101930008CE192E09183808386E384838FEF8583BB
:1019400087E3868388E3878389E380878AE38187C7
:101950008BE382871386148615861686178681E0A8
:101960000E94D70562E372E083ED95E00E942908AA
:101970006FE672E08DEC95E00E9429086EE772E058
:1019800087EC95E00E942908EFE8F5E017821682BF
:101990001186108620E430E033872287158614866E
:1019A0008FEF9FEFDC0186879787A08BB18B338BFE
:1019B000228B20E031EE358B248B168A178A108E0D
:1019C000118E828F938FA48FB58F15AA14AAD7ABCF
:1019D000C6ABD3ABC2AB62E372E08CEE94E0DF91B6
:1019E000CF910C942908CF93DF93CDB7DEB72C9716
:1019F0000FB6F894DEBF0FBECDBF789484B5826079
:101A000084BD84B5816084BD85B5826085BD85B5A2
:101A1000816085BD80916E00816080936E00109220
:101A2000810080918100826080938100809181009B
:101A3000816080938100809180008160809380002C
:101A40008091B10084608093B1008091B00081608A
:101A50008093B0008091910082608093910080918A
:101A600091008160809391008091900081608093CB
:101A700090008091A10082608093A1008091A100DC
:101A800081608093A1008091A00081608093A0007C
:101A900080912101826080932101809121018160E8
:101AA00080932101809120018160809320018091A9
:101AB0007A00846080937A0080917A0082608093BB
:101AC0007A0080917A00816080937A0080917A0018
:101AD000806880937A001092C1008FE494E00E94A5
:101AE000A50182EF94E00E94A50182EB93E00E94A1
:101AF000A5016CE872E08FE494E00E94130882E094
:101B00000E94D7050E94CF0564E972E089ED95E057
:101B10000E94270883E00E94860184E00E948601DB
:101B200070E060E083E00E94B10370E060E084E078
:101B30000E94B10364E670E080E090E00E94AC0493
:101B40000E94CF0560E080E00E94740664EA72E0C3
:101B500089ED95E00E94270882EF94E00E944302FD
:101B6000181619060CF0E4C08FE494E00E942102DC
:101B7000813391F40E94CF0560E080E00E947406FA
:101B800061EB72E089ED95E00E94270860ED77E057
:101B900080E090E00E94AC048FE494E00E94430255
:101BA00018161906CCF68FE494E00E942102182F33
:101BB000682F8FE494E00E948F0260E372E08FE46C
:101BC00094E00E94CB061735D1F1C4F4163409F421
:101BD0009CC0153509F670E060E083E00E94B10317
:101BE00070E060E084E00E94B1030E94CF0560E0F5
:101BF00080E00E94740660EC72E0AACF193509F407
:101C000063C00CF44EC01A3509F0A6CF64E670E04C
:101C100083E00E94B10370E060E084E00E94B103C1
:101C20000E94CF0561E081E00E9474066FE073E0DE
:101C300089ED95E00E9427086EE173E018C064E624
:101C400070E083E00E94B10370E060E084E00E94F5
:101C5000B1030E94CF0560E080E00E94740660ED51
:101C600072E089ED95E00E94270861EE72E0CE01F6
:101C700001960E94290863EF72E0CE0107960E9448
:101C80002908BE016F5F7F4FCE0107960E945A0858
:101C9000CE0107960E94C306CE0101960E94C3069C
:101CA0005BCF64E670E083E00E94B10370E060E027
:101CB00084E00E94B1030E94CF0560E080E00E94B2
:101CC00074066EEF72E044CF64E670E083E00E9439
:101CD000B10370E060E084E00E94B1030E94CF0590
:101CE00060E080E00E94740660ED72E089ED95E0AE
:101CF0000E94270861E080E00E9474066EEF72E0A7
:101D000089ED95E00E94270881CF6FEF70E083E0B6
:101D10000E94B10370E060E084E00E94B1030E9481
:101D2000CF0561E081E00E94740668E273E010CFA5
:101D300064E670E080E090E00E94AC040E94FC0247
:101D4000FFCE8CEE94E00E94C30687EC95E00E94E3
:101D5000C3068DEC95E00E94C30683ED95E00C94DC
:101D6000C3060E94F30E08F481E00895E89409C0C8
:101D700097FB3EF490958095709561957F4F8F4FBE
:101D80009F4F9923A9F0F92F96E9BB279395F695D4
:101D9000879577956795B795F111F8CFFAF4BB0F52
:101DA00011F460FF1BC06F5F7F4F8F4F9F4F16C0B6
:101DB000882311F096E911C0772321F09EE8872F40
:101DC000762F05C0662371F096E8862F70E060E0FC
:101DD0002AF09A95660F771F881FDAF7880F969575
:101DE000879597F90895990F0008550FAA0BE0E819
:101DF000FEEF16161706E807F907C0F012161306CD
:101E0000E407F50798F0621B730B840B950B39F40C
:101E10000A2661F0232B242B252B21F408950A2672
:101E200009F4A140A6958FEF811D811D08950E94A0
:101E30002A0F0C949B0F0E948D0F38F00E94940F74
:101E400020F0952311F00C94840F0C948A0F112428
:101E50000C94CF0F0E94AC0F70F3959FC1F3950FB8
:101E600050E0551F629FF001729FBB27F00DB11D1E
:101E7000639FAA27F00DB11DAA1F649F6627B00DAE
:101E8000A11D661F829F2227B00DA11D621F739F97
:101E9000B00DA11D621F839FA00D611D221F749FA5
:101EA0003327A00D611D231F849F600D211D822FEC
:101EB000762F6A2F11249F5750409AF0F1F0882313
:101EC0004AF0EE0FFF1FBB1F661F771F881F915040
:101ED0005040A9F79E3F510580F00C94840F0C945C
:101EE000CF0F5F3FE4F3983ED4F3869577956795DF
:101EF000B795F795E7959F5FC1F7FE2B880F911D6A
:101F00009695879597F9089597F99F6780E870E00F
:101F100060E008959FEF80EC089500240A9416165F
:101F2000170618060906089500240A9412161306C7
:101F3000140605060895092E0394000C11F4882355
:101F400052F0BB0F40F4BF2B11F460FF04C06F5F71
:101F50007F4F8F4F9F4F089557FD9058440F551F47
:101F600059F05F3F71F04795880F97FB991F61F01B
:101F70009F3F79F087950895121613061406551F92
:101F8000F2CF4695F1DF08C0161617061806991FFE
:101F9000F1CF86957105610508940895E894BB27F3
:101FA00066277727CB0197F908955058BB27AA27B2
:101FB0000E94ED0F0C949B0F0E948D0F38F00E9431
:101FC000940F20F039F49F3F19F426F40C948A0FF3
:101FD0000EF4E095E7FB0C94840FE92F0E94AC0F00
:101FE00058F3BA17620773078407950720F079F44E
:101FF000A6F50C94CE0F0EF4E0950B2EBA2FA02D63
:102000000B01B90190010C01CA01A0011124FF27A5
:10201000591B99F0593F50F4503E68F11A16F040A0
:10202000A22F232F342F4427585FF3CF469537959F
:102030002795A795F0405395C9F77EF41F16BA0B64
:10204000620B730B840BBAF09150A1F0FF0FBB1F12
:10205000661F771F881FC2F70EC0BA0F621F731F5B
:10206000841F48F4879577956795B795F7959E3FB8
:1020700008F0B0CF9395880F08F09927EE0F979549
:10208000879508950E9456100C949B0F0E94940F00
:1020900058F00E948D0F40F029F45F3F29F00C9416
:1020A000840F51110C94CF0F0C948A0F0E94AC0F27
:1020B00068F39923B1F3552391F3951B550BBB2777
:1020C000AA2762177307840738F09F5F5F4F220FBC
:1020D000331F441FAA1FA9F335D00E2E3AF0E0E8B3
:1020E00032D091505040E695001CCAF72BD0FE2FFD
:1020F00029D0660F771F881FBB1F26173707480791
:10210000AB07B0E809F0BB0B802DBF01FF27935848
:102110005F4F3AF09E3F510578F00C94840F0C9479
:10212000CF0F5F3FE4F3983ED4F38695779567959C
:10213000B795F7959F5FC9F7880F911D969587957D
:1021400097F90895E1E0660F771F881FBB1F62179C
:1021500073078407BA0720F0621B730B840BBA0B5A
:10216000EE1F88F7E09508950E94B40F88F09F57FE
:1021700098F0B92F9927B751B0F0E1F0660F771FAB
:10218000881F991F1AF0BA95C9F714C0B13091F0A1
:102190000E94CE0FB1E008950C94CE0F672F782FD8
:1021A0008827B85F39F0B93FCCF386957795679566
:1021B000B395D9F73EF490958095709561957F4FD2
:1021C0008F4F9F4F08950E94F30E08F48FEF0895EC
:1021D0000E94F30E880B990B0895A1E21A2EAA1BF8
:1021E000BB1BFD010DC0AA1FBB1FEE1FFF1FA217C7
:1021F000B307E407F50720F0A21BB30BE40BF50BC4
:10220000661F771F881F991F1A9469F7609570954C
:10221000809590959B01AC01BD01CF010895EE0F13
:10222000FF1F881F8BBF0790F691E02D19940F9325
:102230001F93CF93DF938230910510F482E090E0FA
:10224000E091F305F091F40530E020E0B0E0A0E08B
:10225000309799F42115310509F44AC0281B390B30
:1022600024303105D8F58A819B816115710589F18A
:10227000FB0193838283FE0111C040815181028161
:10228000138148175907E0F04817590799F4109738
:1022900061F012960C93129713961C933296CF010D
:1022A000DF91CF911F910F9108950093F305109343
:1022B000F405F4CF2115310551F04217530738F0DA
:1022C000A901DB019A01BD01DF01F801C1CFEF01D6
:1022D000F9CF9093F4058093F305CDCFFE01E20F83
:1022E000F31F819391932250310939832883D7CFEB
:1022F0002091F1053091F205232B41F42091020247
:10230000309103023093F2052093F10520910002F1
:10231000309101022115310541F42DB73EB74091AE
:10232000040250910502241B350BE091F105F09158
:10233000F205E217F307A0F42E1B3F0B281739070D
:1023400078F0AC014E5F5F4F2417350748F04E0F11
:102350005F1F5093F2054093F105819391939FCFB6
:10236000F0E0E0E09CCFCF93DF930097E9F0FC0131
:10237000329713821282A091F305B091F405ED011A
:1023800030E020E01097A1F420813181820F931F6B
:102390002091F1053091F2052817390709F061C045
:1023A000F093F205E093F105DF91CF910895EA01F2
:1023B000CE17DF07E8F54A815B819E014115510583
:1023C000B1F7E901FB83EA8349915991C40FD51F05
:1023D000EC17FD0761F4808191810296840F951FAF
:1023E000E90199838883828193819B838A83F0E0CA
:1023F000E0E012968D919C9113970097B9F52D917D
:102400003C911197CD010296820F931F2091F10507
:102410003091F2052817390739F6309751F51092A7
:10242000F4051092F305B093F205A093F105BCCF2B
:10243000D383C28340815181840F951FC817D90768
:1024400061F44E5F5F4F88819981480F591F518316
:1024500040838A819B81938382832115310509F012
:10246000B0CFF093F405E093F3059ECFFD01DC01BE
:10247000C0CF13821282D7CF4F925F926F927F921A
:102480008F929F92AF92BF92CF92DF92EF92FF9284
:102490000F931F93CF93DF938C01009799F4CB0197
:1024A000DF91CF911F910F91FF90EF90DF90CF9030
:1024B000BF90AF909F908F907F906F905F904F9064
:1024C0000C941711FC01E60FF71F9C0122503109F3
:1024D000E217F30708F4AEC0D901CD91DC91119752
:1024E000C617D70720F1C530D10578F0CE01049783
:1024F0008617970750F0C61BD70B2297C193D1932D
:102500006D937C93CF010E94B311C801DF91CF91ED
:102510001F910F91FF90EF90DF90CF90BF90AF9001
:102520009F908F907F906F905F904F9008955B0188
:10253000AC1ABD0A4C018C0E9D1EA091F305B09102
:10254000F405512C412CF12CE12C109731F58091A0
:10255000F1059091F2058815990509F05CC04616C1
:10256000570608F058C08091000290910102009730
:1025700041F48DB79EB74091040250910502841B2F
:10258000950BE817F90708F055C0F093F205E093B2
:10259000F105F90171836083B8CF8D919C911197FA
:1025A00012966C90129713967C901397A815B90504
:1025B00059F56C0142E0C40ED11CCA14DB0420F1B1
:1025C000AC014A195B09DA011296159780F0628214
:1025D000738251834083D9016D937C93E114F1049C
:1025E00071F0D7011396FC93EE9312978ECF22963B
:1025F0008C0F9D1FF90191838083F301EFCFF0933E
:10260000F405E093F30581CF4816590608F42C0130
:102610007D01D3019ACFCB010E9417117C01009755
:1026200049F0AE01B8010E941D13C8010E94B31108
:1026300087016BCF10E000E068CFFB01DC0102C036
:1026400001900D9241505040D8F70895FB01DC01F4
:1026500001900D920020E1F7089511E0C2E5D1E06C
:1026600000E006C0802FFE010E940F112196011D7F
:10267000C335D10780E00807A9F7F894FFCF000021
:10268000F5058000000000008F02CC011202DC0280
:10269000430221023502000000008306CC01300510
:1026A000DE046E616E00696E66006F7666000D0A6C
:1026B0000041540041542B434D47463D31004154A5
:1026C0002B434D47533D222B393100220D006874B6
:1026D0007470733A2F2F7777772E676F6F676C65FB
:1026E0002E636F6D2F6D6170732F002C004E6F2065
:1026F00052616E6765202020202020004E6F2052FE
:10270000616E676520202020200057454C434F4DC7
:1027100045002020202057454C434F4D4520202088
:102720002000706C6163652066696E6765720046A3
:10273000494E474552204D415443484544002020CE
:10274000574541522048454C4D45542020002020FB
:102750002020414C43484F484F4C2020202000412E
:102760004C43484F484F4C20434F4E53554D4544E2
:10277000003633383236333734313500444F4E2744
:102780005420535045414B2043414C4C00202020C5
:102790004143434944454E5420202000454D455275
:1027A00047454E4359004841505059204A4F5552D1
:0427B0004E45590039
:10E000000D9489F10D94B2F10D94B2F10D94B2F129
:10E010000D94B2F10D94B2F10D94B2F10D94B2F1F0
:10E020000D94B2F10D94B2F10D94B2F10D94B2F1E0
:10E030000D94B2F10D94B2F10D94B2F10D94B2F1D0
:10E040000D94B2F10D94B2F10D94B2F10D94B2F1C0
:10E050000D94B2F10D94B2F10D94B2F10D94B2F1B0
:10E060000D94B2F10D94B2F10D94B2F10D94B2F1A0
:10E070000D94B2F10D94B2F10D94B2F10D94B2F190
:10E080000D94B2F10D94B2F10D94B2F10D94B2F180
:10E090000D94B2F10D94B2F10D94B2F10D94B2F170
:10E0A0000D94B2F10D94B2F10D94B2F10D94B2F160
:10E0B0000D94B2F10D94B2F10D94B2F10D94B2F150
:10E0C0000D94B2F10D94B2F10D94B2F10D94B2F140
:10E0D0000D94B2F10D94B2F10D94B2F10D94B2F130
:10E0E0000D94B2F141546D656761323536300041AF
:10E0F000726475696E6F206578706C6F72657220DE
:10E1000073746B3530305632206279204D4C530099
:10E11000426F6F746C6F616465723E004875683F52
:10E1200000436F6D70696C6564206F6E203D200048
:10E130004350552054797065202020203D20005FF9
:10E140005F4156525F415243485F5F3D2000415658
:10E1500052204C696243205665723D20004743437C
:10E160002056657273696F6E203D20004350552024
:10E1700049442020202020203D20004C6F7720663D
:10E18000757365202020203D20004869676820665F
:10E190007573652020203D200045787420667573D6
:10E1A00065202020203D20004C6F636B2066757336
:10E1B000652020203D20004D617220203720323024
:10E1C000313300312E362E3800342E332E350056A2
:10E1D00023202020414444522020206F7020636F70
:10E1E00064652020202020696E73747275637469E1
:10E1F0006F6E2061646472202020496E74657272B3
:10E20000757074006E6F20766563746F7200726A49
:10E210006D702020006A6D70200057686174207056
:10E220006F72743A00506F7274206E6F7420737541
:10E2300070706F72746564004D7573742062652030
:10E2400061206C6574746572002000577269747483
:10E25000696E672045450052656164696E672045B7
:10E26000450045452065727220636E743D00504F35
:10E27000525400303D5A65726F2061646472003FF1
:10E280003D43505520737461747300403D454550C3
:10E29000524F4D207465737400423D426C696E6B41
:10E2A000204C454400453D44756D70204545505215
:10E2B0004F4D00463D44756D7020464C415348001B
:10E2C000483D48656C70004C3D4C69737420492F83
:10E2D0004F20506F72747300513D51756974005234
:10E2E0003D44756D702052414D00563D73686F7707
:10E2F00020696E7465727275707420566563746FF0
:10E30000727300593D506F727420626C696E6B00BD
:10E310002A0011241FBECFEFD1E2DEBFCDBF01E046
:10E320000CBF12E0A0E0B2E0EEE1FDEF03E00BBFB6
:10E3300002C007900D92A030B107D9F712E0A0E01B
:10E34000B2E001C01D92AE30B107E1F70F9460F367
:10E350000D948DFE01E20EBF0FEF0DBF11241FBE05
:10E360000D9460F30D9400F020E030E040ED57E0B4
:10E3700005C0FA013197F1F72F5F3F4F2817390792
:10E38000C0F308959C01260F311DC901A0E0B0E043
:10E390002F5F3F4FABBFFC018791882361F08093D3
:10E3A000C6008091C00086FFFCCF8091C0008064D1
:10E3B0008093C000EACF08958DE08093C6008091DD
:10E3C000C00086FFFCCF8091C00080648093C000B5
:10E3D0008AE08093C6008091C00086FFFCCF8091C8
:10E3E000C00080648093C00008950F94C2F10F9420
:10E3F000DCF10895FC019081992359F09093C600B7
:10E400008091C00086FFFCCF8091C0008064809323
:10E41000C0003196992379F70895282F982F929567
:10E420009F70892F805D8A3308F0895F8093C600D2
:10E430008091C00086FFFCCF8091C00080648093F3
:10E44000C000822F8F70982F905D9A3308F0995FEB
:10E450009093C6008091C00086FFFCCF8091C000E1
:10E4600080648093C00008959C01FB01853691056E
:10E470001CF46330710594F0C90164E670E00F94F8
:10E480002EFE605D7F4F6093C6008091C00086FFC6
:10E49000FCCF8091C00080648093C0002B30310598
:10E4A00014F43297B4F0C90164E670E00F942EFEC4
:10E4B0006AE070E00F942EFE605D7F4F6093C600AF
:10E4C0008091C00086FFFCCF8091C0008064809363
:10E4D000C000C9016AE070E00F942EFEC0968093E0
:10E4E000C6008091C00086FFFCCF8091C000806490
:10E4F0008093C00008951F93182F8EE692EE60E07F
:10E500000F94C2F11093C6008091C00086FFFCCF2B
:10E510008091C00080648093C0000F94DCF11F9153
:10E5200008952F923F924F925F926F927F928F92B7
:10E530009F92AF92BF92CF92DF92EF92FF920F9392
:10E540001F93DF93CF93CDB7DEB762970FB6F894E2
:10E55000DEBF0FBECDBF382E622ECA01DB015C01CB
:10E560006D01772420E2222E2E010894411C511CBB
:10E570008BC081E0A81680E0B80681E0C80680E084
:10E58000D80628F0C601AA27BB270F940DF2BB2797
:10E59000AD2D9C2D8B2D0F940DF28A2D0F940DF225
:10E5A0002092C6008091C00086FFFCCF8091C00001
:10E5B00080648093C0009DE29093C6008091C0006B
:10E5C00086FFFCCF8091C00080648093C0002092C1
:10E5D000C6008091C00086FFFCCF8091C00080649F
:10E5E0008093C00019828601750188249924A1E0D6
:10E5F0003A1651F03A1620F0B2E03B1661F409C029
:10E600000BBFF701779007C0C7010F9477FE782EF4
:10E6100002C0F7017080872D0F940DF22092C60082
:10E620008091C00086FFFCCF8091C0008064809301
:10E63000C000872D8052F401EF70F0708F3520F408
:10E64000E40DF51D708204C0E40DF51D8EE280839B
:10E650000894E11CF11C011D111D0894811C911CE2
:10E6600090E18916910409F0C2CF80E190E0A0E02A
:10E67000B0E0A80EB91ECA1EDB1E198AC2010F9493
:10E68000FAF10F94DCF16A94662009F072CF629679
:10E690000FB6F894DEBF0FBECDBFCF91DF911F91B3
:10E6A0000F91FF90EF90DF90CF90BF90AF909F9031
:10E6B0008F907F906F905F904F903F902F90089534
:10E6C0002F923F924F925F926F927F928F929F9282
:10E6D000AF92BF92CF92DF92EF92FF920F931F9370
:10E6E000DF93CF93CDB7DEB7CD53D1400FB6F894BB
:10E6F000DEBF0FBECDBF01E20EBF0FEF0DBF94B75F
:10E70000F894A89514BE80916000886180936000A1
:10E7100010926000789493FF05C0E0910002F091A0
:10E7200001021995279A2F9A8091C00082608093E8
:10E73000C00080E18093C40088E18093C1000000A4
:10E74000EE24FF24870144E0A42EB12CCC24DD2448
:10E7500024C0C5010197F1F70894E11CF11C011DCB
:10E76000111D21E2E2162EE4F20620E0020720E06D
:10E77000120718F031E0C32ED12CC801B70127ECE5
:10E780003BE140E050E00F9441FE611571058105C9
:10E79000910519F485B1805885B98091C00087FD35
:10E7A00003C0C114D104A9F2A6014F5F5F4FC25E3E
:10E7B000DE4F59834883CE51D140C25EDE4F8881FF
:10E7C0009981CE51D140019711F00D9410FEC05D9A
:10E7D000DE4F19821882C053D14060E0C15DDE4F28
:10E7E0001882CF52D14088249924C35DDE4F19820C
:10E7F0001882CD52D140C05EDE4F188219821A8233
:10E800001B82C052D140CE5CDE4F188219821A8220
:10E810001B82C253D140EE24FF2487010BBFF701B6
:10E8200007911691C45CDE4F19830883CC53D14005
:10E830000D940BFEC25EDE4F28813981CE51D1404E
:10E840002130310509F52091C600C25EDE4F1982E4
:10E850001882CE51D14022C02F5F3F4F4F4F5F4FA4
:10E86000213082E138078AE7480780E0580780F0C6
:10E87000C45CDE4FE881F981CC53D140EF5FFF4F9C
:10E8800019F0EE27FF27099420E030E040E050E047
:10E890008091C00087FFE0CF2091C600C35DDE4FAE
:10E8A00048815981CD52D1404F5F5F4FC35DDE4FEC
:10E8B00059834883CD52D140213209F063C64A3092
:10E8C000510508F05FC60894811C911C53E0851621
:10E8D000910409F059C600E010E018C081E280936D
:10E8E000C6008091C00086FFFCCF8091C00080648C
:10E8F0008093C0002F5F3F4F2931310579F70F9486
:10E90000DCF10F5F1F4F0530110519F020E030E0FA
:10E91000E5CF10920A0210920B0210920C02109294
:10E920000D02109206021092070210920802109235
:10E930000902109202021092030210920402109235
:10E9400005028FEE90EE60E00F94F5F180E191EE1C
:10E9500060E00F94C2F18091C00087FFFCCF9091DE
:10E96000C600903608F09F759032B8F09093C600BC
:10E970008091C00086FFFCCF8091C00080648093AE
:10E98000C000A0E2A093C6008091C00086FFFCCF2B
:10E990008091C00080648093C000983409F4D7C18E
:10E9A0009934B8F4923409F459C1933458F490333B
:10E9B00019F1903308F4E3C59F33A1F1903409F0C5
:10E9C000DEC5BDC0953409F470C1963409F0D7C5D1
:10E9D00098C1923509F42BC2933538F49C3409F46C
:10E9E000F5C1913509F0CBC518C2963509F445C279
:10E9F000993509F0C4C567C483E792EE62E00F94CD
:10EA0000F5F110920602109207021092080210927D
:10EA1000090210920A0210920B0210920C0210923C
:10EA20000D0213C18FE792EE62E00F94F5F18FEEC5
:10EA300090EE60E00F94F5F181E291EE60E00F94CA
:10EA4000C2F187EB91EE60E00F94F5F180E391EE77
:10EA500060E00F94C2F184EE90EE60E00F94F5F167
:10EA60008FE391EE60E00F94C2F186E090E061E008
:10EA700070E00F9434F20F94DCF18DE591EE60E0DC
:10EA80000F94C2F189EC91EE60E00F94F5F18EE401
:10EA900091EE60E00F94C2F183EC91EE60E00F9490
:10EAA000F5F18CE691EE60E00F94C2F18EE10F94E7
:10EAB0000DF288E90F940DF281E00F940DF20F949E
:10EAC000DCF18BE791EE60E00F94C2F119E0E0E039
:10EAD000F0E010935700E4918E2F0F940DF20F94F5
:10EAE000DCF18AE891EE60E00F94C2F1E3E0F0E03F
:10EAF00010935700E4918E2F0F940DF20F94DCF1D8
:10EB000089E991EE60E00F94C2F1E2E0F0E0109349
:10EB10005700E4918E2F0F940DF20F94DCF188EAE8
:10EB200091EE60E00F94C2F1E1E0F0E01093570045
:10EB30001491812F0F940DF20F94DCF107CF8BE825
:10EB400092EE62E00F94F5F18BE492EE60E00F94A8
:10EB5000F5F10F94DCF100E010E019C0C8016F2D51
:10EB60000F947FFEFF2031F489E492EE60E00F9471
:10EB7000C2F10BC0F092C6008091C00086FFFCCFAE
:10EB80008091C00080648093C0000F5F1F4FC80158
:10EB900081519F41A0E0B0E0ABBFFC01F790BAE229
:10EBA000FB1621F0E2E000301E07C1F60F94DCF105
:10EBB0000F94DCF187E592EE60E00F94F5F10F948D
:10EBC000DCF1CC24DD2400E010E01EC0C8010F946D
:10EBD00077FEF82E882331F489E492EE60E00F94FA
:10EBE000C2F10BC08093C6008091C00086FFFCCFAD
:10EBF0008091C00080648093C000FE1419F00894D6
:10EC0000C11CD11C0F5F1F4FC80181519F41A0E063
:10EC1000B0E0ABBFFC01E790FAE2EF1621F022E092
:10EC20000030120799F60F94DCF10F94DCF182E6C4
:10EC300092EE60E00F94C2F1C60161E070E00F94C3
:10EC400034F20F94DCF10F94DCF110920202109276
:10EC50000302109204021092050278CE89E992EE26
:10EC600062E00F94F5F1279A2F9A16C02F9880E052
:10EC700090E0E0EDF7E03197F1F7019684369105E9
:10EC8000C1F72F9A80E090E0E0EDF7E03197F1F7DF
:10EC9000019684369105C1F78091C00087FFE6CFC9
:10ECA0008091C00087FFFCCF64C485EA92EE62E0E9
:10ECB0000F94F5F140910202509103026091040219
:10ECC0007091050281E020E10F9491F2809102029F
:10ECD00090910302A0910402B091050280509F4FD1
:10ECE000AF4FBF4F8093020290930302A0930402A0
:10ECF000B093050280509041A040B04008F426CE69
:10ED0000A4CF83EB92EE62E00F94F5F140910602FE
:10ED100050910702609108027091090280E020E1A1
:10ED20000F9491F28091060290910702A09108023F
:10ED3000B091090280509F4FAF4FBF4F80930602A2
:10ED400090930702A0930802B0930902FFCD80ECD4
:10ED500092EE62E00F94F5F183E792EE60E00F949B
:10ED6000F5F18FE792EE60E00F94F5F18BE892EE0B
:10ED700060E00F94F5F189E992EE60E00F94F5F10F
:10ED800085EA92EE60E00F94F5F183EB92EE60E09D
:10ED90000F94F5F180EC92EE60E00F94F5F187ECC2
:10EDA00092EE60E00F94F5F188ED92EE60E00F9442
:10EDB000F5F18FED92EE60E00F94F5F18AEE92EEB0
:10EDC00060E00F94F5F183E093EEBDCD87EC92EE19
:10EDD00062E00F94F5F181E40F947BF282E40F94EA
:10EDE0007BF283E40F947BF284E40F947BF285E45E
:10EDF0000F947BF286E40F947BF287E40F947BF20E
:10EE000088E40F947BF28AE40F947BF28BE40F94F6
:10EE10007BF28CE40F947BF299CD88ED92EE62E068
:10EE20000F94F5F1772473948824992409C48FED05
:10EE300092EE62E00F94F5F140910A0250910B02BC
:10EE400060910C0270910D0282E020E10F9491F22A
:10EE500080910A0290910B02A0910C02B0910D02D8
:10EE600080509F4FAF4FBF4F80930A0290930B0289
:10EE7000A0930C02B0930D0269CD8AEE92EE62E08F
:10EE80000F94F5F184EE90EE60E00F94F5F18FECC5
:10EE900091EE60E00F94F5F1662477244301CC5D98
:10EEA000DE4F19821882C452D140D401C301B695F5
:10EEB000A79597958795CA5DDE4F88839983AA8326
:10EEC000BB83C652D140CC5DDE4FA881B981C4520C
:10EED000D1401196CC5DDE4FB983A883C452D14096
:10EEE000CD0162E070E00F9434F2B0E2B093C6005E
:10EEF0008091C00086FFFCCF8091C0008064809329
:10EF0000C000EDE2E093C6008091C00086FFFCCF18
:10EF10008091C00080648093C000F0E2F093C6004E
:10EF20008091C00086FFFCCF8091C00080648093F8
:10EF3000C000CA5DDE4FE880F9800A811B81C6529D
:10EF4000D140BB27A12F902F8F2D0F940DF2CA5DBA
:10EF5000DE4F8881C652D1400F940DF2B0E2FB2EF5
:10EF6000F092C6008091C00086FFFCCF8091C00067
:10EF700080648093C0000DE30093C6008091C000C0
:10EF800086FFFCCF8091C00080648093C00010E2B7
:10EF90001093C6008091C00086FFFCCF8091C00016
:10EFA00080648093C0008BBEF3012791C65DDE4F65
:10EFB0002883CA52D140A22EBB24CC24DD2408943D
:10EFC000611C711C811C911C8BBEF3018791282E42
:10EFD0003324442455240894611C711C811C911C09
:10EFE0008BBEF3013791C55DDE4F3883CB52D140E4
:10EFF0000894611C711C811C911C8BBEF30147910C
:10F00000C45DDE4F4883CC52D140ADEFEA2EAFEF66
:10F01000FA2EAFEF0A2FAFEF1A2F6E0C7F1C801E57
:10F02000911E142D032DF22CEE24EA0CFB1C0C1D5A
:10F030001D1D0F940DF220E22093C6008091C000A8
:10F0400086FFFCCF8091C00080648093C000C65DC5
:10F05000DE4F8881CA52D1400F940DF230E23093D6
:10F06000C6008091C00086FFFCCF8091C000806404
:10F070008093C000C45DDE4F8881CC52D1400F9494
:10F080000DF240E24093C6008091C00086FFFCCFA5
:10F090008091C00080648093C000C55DDE4F888190
:10F0A000CB52D1400F940DF250E25093C6008091A4
:10F0B000C00086FFFCCF8091C00080648093C000B8
:10F0C0008FEFE8168FEFF80680E0080780E018075A
:10F0D00031F484E092EE60E00F94C2F1DFC0D80119
:10F0E000C7018070907CA070B0708050904CA040A0
:10F0F000B040D1F52FEF3FE340E050E0E222F322B1
:10F1000004231523CA5DDE4FA880B980CA80DB8046
:10F11000C652D140AE0CBF1CC01ED11EAA0CBB1CD7
:10F12000CC1CDD1C8EE092EE60E00F94C2F1BB2798
:10F13000A12F902F8F2D0F940DF28E2D0F940DF285
:10F1400030E23093C6008091C00086FFFCCF8091F2
:10F15000C00080648093C0004EE34093C60080915D
:10F16000C00086FFFCCF87C08EE09EEFA0E0B0E03D
:10F17000E822F9220A231B239CE0E91694E9F90608
:10F1800090E0090790E0190709F088C0C45DDE4FE0
:10F19000A881CC52D140EA2EFF2400E010E0102FCD
:10F1A0000F2DFE2CEE24C55DDE4FB881CB52D14031
:10F1B000EB0EF11C011D111DD601C501817090706F
:10F1C000A070B070DC0199278827E80EF91E0A1F8D
:10F1D0001B1F20EF30E040E050E0A222B322C42207
:10F1E000D52241E1AA0CBB1CCC1CDD1C4A95D1F7F1
:10F1F000EA0CFB1C0C1D1D1D81E090E0A0E0B0E0BE
:10F20000282239224A225B2235E1220C331C441C7D
:10F21000551C3A95D1F7E20CF31C041D151D57013E
:10F220006801AA0CBB1CCC1CDD1C85E192EE60E0E1
:10F230000F94C2F1C801AA27BB270F940DF2BB2778
:10F24000A12F902F8F2D0F940DF28E2D0F940DF274
:10F2500090E29093C6008091C00086FFFCCF809121
:10F26000C00080648093C000AEE3A093C60080918C
:10F27000C00086FFFCCF8091C00080648093C000F6
:10F28000C601AA27BB270F940DF2BB27AD2D9C2DDD
:10F290008B2D0F940DF28A2D0F940DF20F94DCF14B
:10F2A000CC5DDE4FE881F981C452D140F99709F471
:10F2B0004DCBF4E0EF2EF12C012D112D6E0C7F1CA7
:10F2C000801E911EF2CD83E093EE62E00F94F5F183
:10F2D0008AE192EE60E00F94C2F18091C00087FF56
:10F2E000FCCF1091C6001F751093C6008091C0001E
:10F2F00086FFFCCF8091C00080648093C0000F9493
:10F30000DCF1812F81548A3108F036C1163409F4BA
:10F3100095C0173490F4133409F44EC0143430F40B
:10F320001134F1F0123409F01DC130C0143409F465
:10F3300059C0153409F016C16BC01A3409F4C4C0A1
:10F340001B3438F4173409F48FC0183409F00AC19B
:10F35000A1C01B3409F4D2C01C3409F003C1E8C0B9
:10F360008FEF81B90DC082B1809582B980E090E0C5
:10F37000E0EDF7E03197F1F70196883C9105C1F790
:10F380008091C00087FFEFCF12B8EFC08FEF84B934
:10F390000DC085B1809585B980E090E0E0EDF7E0A3
:10F3A0003197F1F70196883C9105C1F78091C00033
:10F3B00087FFEFCF15B8D9C08FEF87B90DC088B1DF
:10F3C000809588B980E090E0E0EDF7E03197F1F7C3
:10F3D0000196883C9105C1F78091C00087FFEFCF6F
:10F3E00018B8C3C08FEF8AB90DC08BB180958BB9A7
:10F3F00080E090E0E0EDF7E03197F1F70196883C8E
:10F400009105C1F78091C00087FFEFCF1BB8ADC059
:10F410008FEF8DB90DC08EB180958EB980E090E0F0
:10F42000E0EDF7E03197F1F70196883C9105C1F7DF
:10F430008091C00087FFEFCF1EB897C08FEF80BBD1
:10F440000DC081B3809581BB80E090E0E0EDF7E0F6
:10F450003197F1F70196883C9105C1F78091C00082
:10F4600087FFEFCF11BA81C08FEF83BB0DC084B38C
:10F47000809584BB80E090E0E0EDF7E03197F1F714
:10F480000196883C9105C1F78091C00087FFEFCFBE
:10F4900014BA6BC08FEF809301010FC080910201FD
:10F4A00080958093020180E090E0E0EDF7E03197F5
:10F4B000F1F70196883C9105C1F78091C00087FF64
:10F4C000EDCF1092020151C08FEF809304010FC065
:10F4D0008091050180958093050180E090E0E0ED4A
:10F4E000F7E03197F1F70196883C9105C1F78091DB
:10F4F000C00087FFEDCF1092050137C08FEF8093DA
:10F5000007010FC08091080180958093080180E079
:10F5100090E0E0EDF7E03197F1F70196883C910536
:10F52000C1F78091C00087FFEDCF109208011DC088
:10F530008FEF80930A010FC080910B01809580931B
:10F540000B0180E090E0E0EDF7E03197F1F70196F4
:10F55000883C9105C1F78091C00087FFEDCF1092E4
:10F560000B0103C085E292EEEEC98091C00087FFD7
:10F57000FCCF8091C600EAC988E392EEE4C98CE131
:10F5800091EEE1C988249924933011F1943028F444
:10F59000913089F09230B8F408C0953061F195301F
:10F5A000F0F0963009F048C043C02B3109F042C951
:10F5B00091E06BE13FC96227C15DDE4F2883CF52E6
:10F5C000D14092E037C9B22FA0E0622793E032C960
:10F5D000822F90E0A82BB92B622794E02BC92E3004
:10F5E00009F039C3622795E0C05DDE4F19821882A9
:10F5F000C053D1401FC9E1E0F0E0EC0FFD1FC05D3A
:10F60000DE4F08811981C053D140E00FF11F2083E4
:10F610000F5F1F4FC05DDE4F19830883C053D14079
:10F6200062270A171B0709F005C9D80196E002C92D
:10F63000261709F010C303C0973009F0FBC87724E0
:10F640009981933109F412C19431C8F4963009F4C8
:10F65000D8C0973050F4923009F406C1933009F4C1
:10F660006DC0913009F059C253C0913109F477C08F
:10F67000923108F0BBC0903109F04FC2F5C098310B
:10F6800009F487C0993150F4953109F4EFC09531F0
:10F6900008F4C6C1963109F040C2C2C19A3109F4DA
:10F6A0006CC09A3108F491C09B3109F45BC09D3164
:10F6B00009F033C29D81903359F48F81882311F46E
:10F6C0009EE11CC0813011F091E018C098E916C08D
:10F6D000892F807591F0903539F4E0E0F0E089E011
:10F6E0008093570094910AC0983539F4E3E0F0E034
:10F6F00089E080935700949101C090E01A821B82A8
:10F700008D818C831D829E831F8227E030E009C299
:10F710001A8288E08B8381E48C8386E58D8382E581
:10F720008E8389E48F8383E5888780E589878FE5E9
:10F730008A8782E38B872BE030E0F3C18A818139AD
:10F7400041F0823941F0803911F48FE005C080E04A
:10F7500003C082E001C08AE01A828B8344C0772410
:10F76000739482C08D81882311F48EE12CC0813086
:10F7700011F081E028C088E926C01A82E1E0F0E0BB
:10F7800089E08093570084918B831C8224E030E0D1
:10F79000C8C18B81803589F48C81883039F4E2E0EE
:10F7A000F0E089E08093570084910DC0E0E0F0E044
:10F7B00089E080935700849106C0E3E0F0E089E09F
:10F7C0008093570084911A82DFCF8D81836C99E0FA
:10F7D000E1E0F0E0082E90935700E89507B600FCB2
:10F7E000FDCF1A821B8223E030E09BC180EC8A832C
:10F7F000CE5CDE4F188219821A821B82C253D1401E
:10F800008EC18A8190E0A0E0B0E0582F44273327D2
:10F8100022278B8190E0A0E0B0E0DC0199278827C7
:10F82000282B392B4A2B5B2B8D8190E0A0E0B0E098
:10F83000282B392B4A2B5B2B8C8190E0A0E0B0E089
:10F84000BA2FA92F982F8827282B392B4A2B5B2BCF
:10F85000220F331F441F551FC05EDE4F288339839C
:10F860004A835B83C052D1401A8259C13A81C95C34
:10F87000DE4F3883C753D140CA5CDE4F1882C6536F
:10F88000D1408B81C82EDD24CA5CDE4F488159816E
:10F89000C653D140C42AD52A933109F082C0CE5C28
:10F8A000DE4F88819981AA81BB81C253D1408050AB
:10F8B000904CA340B04030F583E0CE5CDE4FE88052
:10F8C000F9800A811B81C253D140F70100935B008C
:10F8D00080935700E89507B600FCFDCFCE5CDE4F65
:10F8E000088119812A813B81C253D14000501F4FAA
:10F8F0002F4F3F4FCE5CDE4F088319832A833B8313
:10F90000C253D140C05EDE4F488159816A817B81FC
:10F91000C052D140DE011B9631E08C9111962C91A2
:10F9200011971296C75CDE4F2883C953D140C85C3B
:10F93000DE4F1882C853D14090E0C85CDE4FE881AA
:10F94000F981C853D1408E2B9F2B0C01FA01609393
:10F950005B0030935700E89511244E5F5F4F6F4F67
:10F960007F4F0EEFE02E0FEFF02ECE0CDF1CC114F8
:10F97000D10499F685E0C05EDE4F088119812A81A5
:10F980003B81C052D140F80120935B008093570027
:10F99000E89507B600FCFDCF81E180935700E8951C
:10F9A00035C0C05EDE4F88819981AA81BB81C0527B
:10F9B000D140B695A795979587957C018601ABE0D8
:10F9C000AA2EB12CAC0EBD1E0BC0D5016D915D01F0
:10F9D000C7010F947FFE0894E11CF11C01501040F8
:10F9E0000115110591F7A60160E070E0440F551F65
:10F9F000661F771FC05EDE4FE880F9800A811B8199
:10FA0000C052D1404E0D5F1D601F711F1A82C05E33
:10FA1000DE4F488359836A837B83C052D1407FC0C5
:10FA2000FA80C55CDE4FF882CB53D140C65CDE4F16
:10FA30001882CA53D1408B81C82EDD24C65CDE4FAC
:10FA400008811981CA53D140C02AD12A1A828981DA
:10FA5000BE016D5F7F4F843121F59601C05EDE4FA0
:10FA6000E880F9800A811B81C052D1400BBFF701A9
:10FA700087919691DB018C9311969C936E5F7F4FDB
:10FA8000D801C7010296A11DB11DC05EDE4F88835B
:10FA90009983AA83BB83C052D14022503040F1F6F3
:10FAA00036C0C05EDE4F288139814A815B81C052F9
:10FAB000D1400894C108D108760100E010E0089414
:10FAC000C11CD11C0894E11CF11C011D111DE20E8A
:10FAD000F31E041F151F21BDBB27A52F942F832FB5
:10FAE00082BD2F5F3F4F4F4F5F4FF89A80B5DB01CC
:10FAF0008D93BD012E153F054007510761F7C05E8C
:10FB0000DE4F288339834A835B83C052D1409601FC
:10FB10002D5F3F4FFB01108204C080EC8A8322E0FE
:10FB200030E08BE18093C6008091C00086FFFCCF5F
:10FB30008091C00080648093C000C15DDE4FF88179
:10FB4000CF52D140F093C6008091C00086FFFCCF19
:10FB50008091C00080648093C000432F3093C60022
:10FB60008091C00086FFFCCF8091C00080648093AC
:10FB7000C000922F2093C6008091C00086FFFCCF6A
:10FB80008091C00080648093C0008EE08093C600A6
:10FB90008091C00086FFFCCF8091C000806480937C
:10FBA000C00065E1C15DDE4FE880CF52D1406E25D7
:10FBB00069276427FE01319610C090819093C6009A
:10FBC0008091C00086FFFCCF31968091C000806498
:10FBD0008093C0006927215030402115310569F715
:10FBE0006093C6008091C00086FFFCCF8091C0006A
:10FBF00080648093C00085B1805885B9772081F4F6
:10FC0000C15DDE4F0881CF52D1400F5FC15DDE4F35
:10FC10000883CF52D14090E0A0E0B0E00D941AF4F8
:10FC200027982F9880E090E020ED37E0F901319798
:10FC3000F1F7019684369105C9F700008091C00064
:10FC40008D7F8093C00081E180935700E895EE2777
:10FC5000FF270994FFCF90E00D941AF497FB092E2B
:10FC600007260AD077FD04D02ED006D000201AF443
:10FC7000709561957F4F0895F6F7909581959F4F08
:10FC80000895A1E21A2EAA1BBB1BFD010DC0AA1FDD
:10FC9000BB1FEE1FFF1FA217B307E407F50720F0F5
:10FCA000A21BB30BE40BF50B661F771F881F991F70
:10FCB0001A9469F760957095809590959B01AC01B9
:10FCC000BD01CF010895AA1BBB1B51E107C0AA1FAC
:10FCD000BB1FA617B70710F0A61BB70B881F991FED
:10FCE0005A95A9F780959095BC01CD010895F99991
:10FCF000FECF92BD81BDF89A992780B50895262F31
:10FD0000F999FECF1FBA92BD81BD20BD0FB6F89400
:0EFD1000FA9AF99A0FBE01960895F894FFCF63
:00000001FF
